:020000040800F2
:10000000A0500020F90200089724000841220008AF
:1000100085240008D10E00086D2A000800000000A9
:10002000000000000000000000000000390200088D
:10003000E30E00080000000095020008A12400085B
:100040001303000813030008130300081303000838
:100050001303000813030008130300081303000828
:100060001303000813030008130300081303000818
:100070001303000813030008130300081303000808
:1000800013030008130300081303000813030008F8
:1000900013030008130300081303000813030008E8
:1000A00013030008130300081303000813030008D8
:1000B0006125000813030008130300081303000858
:1000C00013030008130300081303000813030008B8
:1000D00013030008612A0008130300081303000833
:1000E0001303000813030008130300081303000898
:1000F0001303000813030008130300081303000888
:100100001303000813030008130300081303000877
:100110001303000813030008130300081303000867
:100120001303000813030008130300081303000857
:100130001303000813030008130300081303000847
:100140001303000813030008130300081303000837
:100150001303000813030008130300081303000827
:100160001303000813030008130300081303000817
:100170001303000813030008130300080000000025
:10018000130300081303000800F002F800F044F81D
:100190000AA090E8000C82448344AAF10107DA45E2
:1001A00001D100F039F8AFF2090EBAE80F0013F0F0
:1001B000010F18BFFB1A43F001031847104300005A
:1001C00030430000103A24BF78C878C1FAD85207EB
:1001D00024BF30C830C144BF04680C6070470000C1
:1001E0000023002400250026103A28BF78C1FBD840
:1001F000520728BF30C148BF0B6070471FB504F0DD
:10020000ABF89DE8030000F035FC00F013FA1FBDC9
:1002100010B500F078FA10BD00F0DBFA1146FFF7D8
:10022000EDFF02F041FC00F0F3FB03B4FFF7F0FF39
:1002300003BC00F0B1FD00002C4B19680868B0E861
:10024000F04F80F30988BFF36F8F4FF0000080F309
:10025000118870470000000008480068006880F3BB
:1002600008884FF0000080F3148862B661B6BFF3CF
:100270004F8FBFF36F8F00DF00BF00BF08ED00E0BE
:10028000DFF80C00016841F470010160704700BFA5
:1002900088ED00E0EFF30980BFF36F8F134B1A680E
:1002A0001EF0100F08BF20ED108A20E9F04F1060FB
:1002B00009B44FF0500080F31188BFF34F8FBFF3A4
:1002C0006F8F03F0FBFA4FF0000080F3118809BC38
:1002D00019680868B0E8F04F1EF0100F08BFB0ECC6
:1002E000108A80F30988BFF36F8F704734000020B5
:1002F000EFF3058070470000094880470948004730
:10030000FEE7FEE7FEE7FEE7FEE7FEE7FEE7FEE7C5
:10031000FEE7FEE704480549054A064B7047000022
:100320005125000889010008A04A0020A0500020A3
:10033000A04C0020A04C002053EA020C00F0698081
:100340002DE9F04B4FF00006002B1FBFB3FA83F5E9
:1003500003FA05F424FA05F65E4012BF1643B2FA1A
:1003600082F502FA05F4C5F120051EBF22FA05FC4C
:1003700044EA0C04203556EA044C4FEA144418BFF2
:10038000641C4FF000084FF00009904271EB030C21
:1003900039D3002919BFB1FA81F701FA07F6B0FA8B
:1003A00080F700FA07F6C7F120071EBF20FA07FC06
:1003B00046EA0C062037B6FBF4FCA7EB0507103F16
:1003C00007F01F0BCBF120060CFA0BFB2CFA06F6FC
:1003D00044BFB3460026202FA4BF5E464FF0000B5B
:1003E0005BEA060C08BF4FF0010B19EB0B09ABFBE6
:1003F000027C48EB0608C01B06FB02CC0BFB03CCBF
:1004000071EB0C01C1E70B46024641464846BDE888
:10041000F08B13B54FF000004FF00001AFF30080F8
:10042000BDE81C40704700000FB4044910B503AA92
:10043000029800F07DF810BC5DF814FB984900208C
:10044000032A40F2308010F0030C00F0158011F800
:10045000013BBCF1020F624498BF11F801CB00F8D8
:10046000013B38BF11F8013BA2F1040298BF00F82C
:1004700001CB38BF00F8013B11F0030300F06A80A4
:10048000083AC0F0088051F8043B083A51F804CB10
:10049000A0E80810F5E7121D5CBF51F8043B40F8D6
:1004A000043BAFF30080D20724BF11F8013B11F8E1
:1004B00001CB48BF11F8012B24BF00F8013B00F825
:1004C00001CB48BF00F8012B704702F0FF0343EA5D
:1004D000032242EA024200F071B84FF0000200B578
:1004E000134694469646203922BFA0E80C50A0E857
:1004F0000C50B1F12001BFF4F7AF090728BFA0E805
:100500000C5048BF0CC05DF804EB890028BF40F8D0
:10051000042B08BF704748BF20F8022B11F0804F12
:1005200018BF00F8012B70477047704770470000F4
:10053000074B70B50D467B4400F065F8044628462D
:1005400000F074F810B14FF0FF3070BD204670BD60
:100550005725000010B5203AC0F00B80B1E81850C4
:10056000203AA0E81850B1E81850A0E81850BFF49D
:10057000F5AF5FEA027C24BFB1E81850A0E818503C
:1005800044BF18C918C0BDE810405FEA827C24BF90
:1005900051F8043B40F8043B08BF7047D20728BF1E
:1005A00031F8023B48BF11F8012B28BF20F8023B6D
:1005B00048BF00F8012B70474FF000020429C0F03B
:1005C000128010F0030C3FF48AAFCCF1040CBCF1A4
:1005D000020F18BF00F8012BA8BF20F8022BA1EBD7
:1005E0000C01FFF77CBF5FEAC17C24BF00F8012B40
:1005F00000F8012B48BF00F8012B704701694A1C25
:1006000002610878704700B58FB0CDE90131002153
:10061000059105497944CDE903101146684600F07B
:1006200024F90FB000BD0000E5FFFFFF007B00F0E4
:100630008000704710B542485421FFF74EFF4148F3
:100640005421FFF74AFF40485421FFF746FF3F4936
:100650003B483C4A3F4B08603D490A603A491960B3
:10066000531C0365481C1065012008653B48344A4B
:1006700039A1784400F030F920B9384878440A3874
:1006800000F0CFF937482F4A35A1784400F024F91B
:1006900020B9344878440A3800F0C3F932482A4A6D
:1006A0002FA1784400F018F920B92F4878440A386F
:1006B00000F0B7F940232248DC000021224600F078
:1006C000E8F820B125487844543800F0AAF91D48CC
:1006D00022464023002100F0DCF820B12148784474
:1006E000543800F09EF9184822461023002100F0EB
:1006F000D0F8002806D01C487844BDE81040563891
:1007000000F08FB910BD104870B5006D20F00104E5
:100710000B4800F057F90B4800F054F90A4800F074
:1007200051F909E0206D20F00105204600F04AF95A
:10073000204600F073F82C46002CF3D170BD000069
:100740004449002098490020EC490020B4000020D2
:10075000B8000020BC00002072000000EA3D00004C
:1007600077000000D63D0000C23D00000EB5CDE987
:10077000000100F0F1FA029069460120ABBE0EBD07
:1007800008B5694600900220ABBE08BD1FB58DE8D4
:10079000070069460520ABBE04B010BD1FB58DE84B
:1007A0000F0069460620ABBEF6E708B56946009023
:1007B0000920ABBE08BD1CB5CDE9000169460A2081
:1007C000ABBE1CBD704708B5694600900C20ABBE9F
:1007D00008BD754600F02CF9AE4605006946534643
:1007E00020F00700854618B020B5FFF793FDBDE85F
:1007F00020404FF000064FF000074FF000084FF088
:10080000000B21F00701AC46ACE8C009ACE8C00918
:10081000ACE8C009ACE8C0098D46704770B5044625
:10082000051F00F00BF90068002C14BF446870BD70
:10083000002C18BFAC423CBF20466468F8D3016866
:100840000A18AA4218BF456003D12A680546114418
:10085000016028684119A1421CBF6C6070BD6168CD
:10086000696021680844286070BD2DE9F0410646A2
:100870000024D6E90170F5688046304603E0414621
:10088000B847641C3046A8470028F8D12046BDE888
:10089000F08170B5C468A50713D0650211D4B2F514
:1008A000807F09D0B2F5007F06D0B2F5806F08D105
:1008B000012300F1240106E05D1E6FF07F46B54282
:1008C00001D3012070BD0161C361416024F47061F6
:1008D0001143C160002070BD2DE9F0410C46074670
:1008E0001646104600F06EF82078611C61280AD088
:1008F000722802D077283CD102E00125002405E0CF
:100900000225042402E0082448F2020511F8010B34
:100910002B2806D0622809D011F8010C74280AD0BF
:100920000BE045F0030544F00204EFE745F0040551
:1009300044F00104EAE744F0100438462146FFF78A
:1009400015FF411C15D00021316171604FF4007119
:10095000F560F1617061200704D530460222002164
:1009600000F0E6F8306D40F0010030653046BDE83B
:10097000F0810020FBE72DE9F0410D460646104CC2
:10098000206DC10704D0410804D020F00104F7E72E
:1009900022460EE0542000F09CF807000ED0206D97
:1009A00047F001010843542120653846FFF795FDC3
:1009B0003A4629463046BDE8F0418DE70020D6E7AB
:1009C000444900202DE9F04704464FF000094FF05C
:1009D000FF37C568D4E90486A80707D0204600F091
:1009E00057F93046FFF7CCFE002802DA3846BDE85A
:1009F000F087280502D54046FFF710FF4C2120461E
:100A0000FFF76BFD206D20F0010020654846EEE702
:100A100010B50446AFF300802046BDE81040FFF754
:100A200004BC10B500F07EF9BDE8104000F074B9C8
:100A300000487047404A0020704700000048704757
:100A4000484A0020704770477047704738B50446E1
:100A50000A4600206946AFF30080002808BF38BD71
:100A600002460099204600F0A4F9012038BD01207B
:100A700000F0F3B9F8B5AFF30080054600200C464E
:100A8000102000BF0646A819A0420DD9324669467B
:100A90000020AFF30080070008BF00F0DEF90098E7
:100AA000A04218BF0546C419FFF7C8FF05600746F6
:100AB000F01D20F007004619284600F073F9B442F3
:100AC00008BFF8BDA21B31463868BDE8F84000F009
:100AD00070B970B50646FFF7B1FF056806F10B0067
:100AE00020F00704B4429CBF002070BD2B466A680A
:100AF000BAB11068A04210D304F1080188423CBF8B
:100B00005068586007D35168101941601168091B7B
:100B1000016058601460101D70BD13465268002AB1
:100B2000E7D121462846FFF791FF0028DED170BDAE
:100B30002DE9F041044616460D464769007B8007C3
:100B40002ED03846FFF731FE50BB3EB3012E02D007
:100B5000022E25D104E0204600F045F905441DE0B1
:100B60003846FFF730FEE168002841F01001E160EF
:100B700005DA204600F058F80120BDE8F081C903ED
:100B80000BD56268E16A914200D81146A26911440E
:100B90002269891A814200DD08460544002D01DAE8
:100BA0000220EAE7E16A6068E268814206D29103C6
:100BB000E06203D522F4003141F01002A66900275B
:100BC000AE4213DCE16A814201D90B4600E00346E4
:100BD00003EB060C2369ACEB030CAC4506DD81424C
:100BE00001D98C4600E084469C4505D1A76027606A
:100BF00042F02000A5620DE0AD1BE669AE1B81420C
:100C0000A66000D90846C01A281A206058196060EA
:100C100022F0200003490840E060002084F848707A
:100C2000ABE70000BFCFD7FFC16821F4001141F04E
:100C30008001C16000218160016070472DE9F047AB
:100C4000814614460E464FF0FF383248D568576942
:100C5000054209D03846A169FFF7ADFD002811DB38
:100C60002C48C0430540E5602B463246494638468D
:100C7000FFF78CFDA16920F00042B21A1144002850
:100C8000A16103D02046FFF7CFFF4046BDE8F087C3
:100C900070B504460569C06A6168884200D8084694
:100CA000E16821F42011E160C90312D5A84208D0FF
:100CB0002246411B2846FFF7C1FF10B14FF0FF301D
:100CC00070BD0020E562C4E90150E06820F4803086
:100CD000E060002070BD10B50446C06820F0200020
:100CE000E060A16AA06988420DD02046FFF7D0FFDE
:100CF000E06820F4405040F01000E060A06AA0617D
:100D00002069E062606044F24001E0688843E0608E
:100D100010BD000010000200002801D000F03CB817
:100D20007047000010B5014602A000F07DF80120D8
:100D300010BD000053494752545245443A20526571
:100D40006469726563743A2063616E2774206F7002
:100D5000656E3A200000000010B5431C02E010F858
:100D6000011B71B18107FAD14FF0013202C88C1A10
:100D70008C4314EAC211F9D0C01A0A0603D0C01E6F
:100D800010BDC01A10BD0A0401D0801E10BD09029A
:100D9000FCD0401E10BD000001491820ABBEFEE78C
:100DA0002600020000210160C0E9011070471020F8
:100DB0007047034640688C46002818BF88423CBFF5
:100DC00003464068F8D318681844884207D00CF1ED
:100DD000030020F00700001D411A521A0146081DA9
:100DE0000A60FFF71BBD10B50146C268900703D02B
:100DF000900607D5886A0AE000F03EF801210160FC
:100E0000881E10BD8B69486818440B69C01A91F898
:100E100048301BB191F84910401A10BD1103FCD5A0
:100E20000028FADD401E10BD70B505460C460A20AC
:100E300000E06D1C00F018F835B128780028F8D1D2
:100E400002E0641C00F010F814B120780028F8D1FA
:100E5000BDE870400A2000F007B810B500F010F8A7
:100E6000BDE81040FFF758BF08B569468DF800008F
:100E70000320ABBE08BD000000487047404A002078
:100E800010B5012805D0002103A0FFF7CDFF0120F8
:100E900010BD09A1F8E7000053494752544D454D94
:100EA0003A204F7574206F662068656170206D650B
:100EB0006D6F7279000000003A2048656170206D06
:100EC000656D6F727920636F7272757074656400FE
:100ED000FEE7012001F00EFEFBE7012001F00AFE13
:100EE000FBE7704772B6FEE72DE9F0410446876DD7
:100EF00000F054F9064694F835000025022806D083
:100F00008020606584F834500120BDE8F0812068BD
:100F1000016821F0160101602068416921F080011B
:100F20004161206C08B9A06C20B12068016821F0F3
:100F3000080101602068016821F0010101600CE0F6
:100F400000F02CF9801B052807D9202060650320BC
:100F500084F8350084F83450D7E720680068C0076B
:100F6000EED194F85C103F208840B860012084F8EE
:100F7000350084F834500020C7E790F83510022976
:100F800003D08021416501207047052180F835108C
:100F90000068016821F00101016000207047000035
:100FA0002DE9F84FDFF8BCA10022012503264FF000
:100FB0000F090AF1040BAAF1040E00BF0B6805FA31
:100FC00002F42340A34270D10F7907F00307012FE9
:100FD00001D0022F16D187684FEA420806FA08FCB2
:100FE00027EA0C07D1F80CC00CFA08FC4CEA070CF5
:100FF000C0F808C04768A7430C79C4F300149440B4
:101000003C4344600C79E443A4070AD0C4684FEA27
:10101000420C06FA0CF7BC438F6807FA0CF727431B
:10102000C7600C7904F00304022C12D1D40800EB41
:10103000840CDCF820405707FF0E09FA07F824EA71
:101040000804D1F8108008FA07F848EA0408CCF838
:10105000208004684FEA420C06FA0CF7BC430F7973
:1010600007F0030707FA0CF7274307604C6814F4EE
:10107000403F70D03C4C276847F480472760246885
:1010800022F0030704F480440094384C07EB040C6E
:10109000DCF8084897074FEA177809FA08F7BC43C5
:1010A000334FB84202D1002724E054E0314FB84218
:1010B00001D101271EE0304FB84201D1022719E0CB
:1010C0002E4FB84201D1032714E02D4FB84201D171
:1010D00004270FE02B4FB84201D105270AE02A4F21
:1010E000B84201D1062705E0284FB84201D10727B1
:1010F00000E0082707FA08F72743CCF80878DAF861
:1011000000405746D1F804C09C435FEACC2C00D580
:101110001C433C60DBF800405F46D1F804C09C43B0
:101120005FEA8C2C00D51C433C60DEF8004077461B
:10113000D1F804C09C435FEA8C3C00D51C433C6062
:10114000084F083F3C68D1F804C09C435FEACC3CA0
:1011500000D51C433C60521C102AFFF42FAFBDE8A1
:10116000F88F0000083C0140443802400030014044
:10117000000002400004024000080240000C02404F
:10118000001002400014024000180240001C0240FF
:101190000AB1816170470904FBE7000001488068DB
:1011A0007047000024000020024881680278114442
:1011B00081607047240000200B4810B5016841F49D
:1011C00000710160016841F480610160016841F4CF
:1011D00080710160032000F09FF80F2000F006F8F6
:1011E00000F050F8002010BD003C024030B505462C
:1011F000204887B00024016841F0010101600068C7
:1012000006A900F00100009001A800F031F904984F
:10121000B0B100F04DF9400017494FF08042B0FBEB
:10122000F1F11648491E026040F2E732C0E903249A
:10123000C0E90114846100F01DFC040003D015E036
:1012400000F036F9E8E70D4800F042FC04000DD14B
:101250001C2000F033F8102D07D2002229461C2054
:1012600000F03AF80648056000E0012407B0204687
:1012700030BD00004038024040420F0028140020DA
:10128000280000200C4882B0016841F480410160D0
:10129000006800F4804000900748001F016841F09A
:1012A000805101600068002200F0805000900F2102
:1012B000901E02B000F010B844380240002809DB4C
:1012C00000F01F02012191404009800000F1E02060
:1012D000C0F8001170470000F0B40E4B1B680C46BC
:1012E000C3F30223C3F10705042D00D90425191DFA
:1012F000072901D2002300E0DB1E012606FA05F1D2
:10130000491E214099409E40761E16403143F0BC54
:1013100001F0ADBB0CED00E0064900F007020868E3
:101320004FF6FF03184040EA0220034A10430860CA
:10133000704700000CED00E00000FA052DE9F047D1
:101340000E46050065D0DFF81481D8F80000F7B22A
:1013500000F00700B04207D288F80070D8F800000B
:1013600000F00700B04254D128683D4C810712D5E7
:10137000400703D5206840F4E0502060287800073B
:1013800003D5206840F4604020602068A96820F000
:10139000F000084320602878C0072DD030496868E5
:1013A0000839012812D0022813D0032811D0096867
:1013B000890700292DDA216821F00301014321600A
:1013C000FFF7ECFE814641F2883A0EE00968890396
:1013D000EFE709688901ECE7FFF7E0FEA0EB090100
:1013E000514502D90320BDE8F0872068696800F004
:1013F0000C00B0EB810FEFD1D8F80010404601F09F
:101400000701B14207D90770006800F00700B04239
:1014100001D00120E7E72878400705D52068E96872
:1014200020F4E050084320602878000706D52068A3
:10143000296920F4604040EAC100206000F058F8BB
:101440002168084AC1F30311515CC840064908608D
:1014500006480068FFF7CAFE0020C4E7003C0240CF
:1014600008380240484400083000002028000020CE
:101470000F2202600C4A136803F0030343601368F1
:1014800003F0F0038360136803F4E053C360126851
:101490004FF4E05303EAD20202610448006800F00E
:1014A000070008607047000008380240003C024016
:1014B0000448054900680968044AC1F38221515C67
:1014C000C8407047300000200838024058440008E7
:1014D0000448054900680968044AC1F34231515C77
:1014E000C8407047300000200838024058440008C7
:1014F000154810B5006810F00C02144813D04110C4
:10150000042A0FD0082A0ED10F4C241F226823680A
:1015100002F03F025B0207D52068C0F38810A0FBF1
:10152000010106E0084610BD2168C1F38811A1FB46
:1015300000010023FEF700FF2168C1F30141491CAF
:101540004900B0FBF1F010BD083802400024F4005F
:101550002DE9F84F04006ED02078DFF84C93C007D7
:10156000A9F104054AD009F104000168C1F3810121
:10157000012908D00068C0F3810002280AD1D9F8F7
:101580000000400206D52868800337D5606800282F
:10159000E1D033E06068B0F5803F10D0B0F5A02F07
:1015A000286810D020F480302860286820F480203B
:1015B00028606068A8B1FFF7F1FD06460DE02868D5
:1015C00040F48030F4E740F480202860F7E700BF63
:1015D000FFF7E4FD801B642873D828688003F7D5E3
:1015E0000CE0FFF7DBFD064605E000BFFFF7D6FD88
:1015F000801B6428F0D828688003F7D42078DFF8AF
:10160000AC8280074FF0000A3ED5A748001D016854
:1016100011F00C0F08D00068C0F3810002280BD134
:10162000D9F80000400207D42868800716D5E06882
:10163000012800D112E033E1E068B8B10120C8F818
:101640000000FFF7ABFD064605E000BFFFF7A6FD73
:10165000801B0228C0D828688007F7D52868216930
:1016600020F0F80040EAC10028600DE0C8F800A0B2
:10167000FFF794FD064604E0FFF790FD801B02286B
:101680001FD828688007F7D42078000722D5864F16
:1016900087486169703771B101210160FFF77EFDF4
:1016A000064604E0FFF77AFD801B022809D8386857
:1016B0008007F7D50EE0C0F800A0FFF76FFD0646E3
:1016C00005E082E0FFF76AFD801B02287DD83868BC
:1016D0008007F7D42078400768D5DFF8CCB1002721
:1016E0000BF13C0BDBF80000C0000BD4DBF8001062
:1016F00041F08051CBF80010DBF80000012700F02A
:10170000805000906B4E3068C00510D4306840F4B3
:1017100080703060FFF742FD009005E0FFF73EFD6E
:101720000099401A022850D83068C005F6D55E4EA0
:10173000A0686C3601280FD00528306810D020F042
:1017400001003060306820F004003060A068B8B15B
:10175000FFF724FD00900FE0306840F00100F4E74F
:1017600040F004003060F7E7FFF718FD0099411AD8
:1017700041F28830814266D830688007F4D50EE0A7
:10178000FFF70CFD009007E0FFF708FD0099411AF4
:1017900041F28830814256D830688007F4D42FB1A6
:1017A000DBF8001021F08051CBF80010A069C8B31D
:1017B0003D49091D0968C1F3810102294AD0022867
:1017C000504607D0C8F8600000E03CE0FFF7E6FCB8
:1017D00004463BE04746C8F86000FFF7DFFC0646DA
:1017E00005E000BFFFF7DAFC801B02282BD8286831
:1017F0008001F7D4D4E907010843A16A2E4A4908B9
:1018000002EB0141626A41EA8211084394F82C100C
:1018100040EA0161C9F8001001203866FFF7BEFCFC
:10182000044606E03EE000BFFFF7B8FC001B0228BC
:1018300009D828688001F7D534E000BFFFF7AEFC77
:10184000001B022802D90320BDE8F88F2868800118
:10185000F4D427E00128F7D0D9F80000E26900F4B9
:10186000800191421CD1226A00F03F01914217D1C0
:1018700047F6C071626A0140B1EB821F10D1A26AC3
:101880004FF0FF3300F4403103EB5202B1EB024F53
:1018900006D194F82C1000F07060B0EB016F01D00D
:1018A0000120D1E70020CFE7043802400000474282
:1018B000800E4742007000400000FFFF70B504003A
:1018C00009D0606A002540B125616561A56294F880
:1018D000510040B10CE0012070BD6068B0F5827F1E
:1018E000F4D0E561F2E784F85050204600F044F867
:1018F000022084F851002068016821F04001016055
:10190000A088218900F4827001F404410843A18970
:1019100001F400610843217C01F002010843217DAC
:1019200001F001010843218B01F400710843217F7C
:1019300001F03801084394F8201001F080010843B9
:10194000218D01F40051084321680860A069042139
:1019500001EA104094F8241001F0100108432168B6
:1019600048602068C16921F40061C161656501209A
:1019700084F85100002070BD10B586B004461421D3
:101980006846FEF7AAFD13492068884220D1124814
:101990000021026842F480520260006800F4805026
:1019A00005900D481438026842F001020260006898
:1019B00000F001000590E02000900220CDE9010137
:1019C000032003900520049069460448FFF7E8FAD5
:1019D00006B010BD00300140443802400000024013
:1019E0007047704770B590F83C20012A32D001242E
:1019F00080F83C40022280F83D2003685A689D68C8
:101A000022F070060A6832435A60134B02689A4209
:101A100014D0B2F1804F11D0104B9A420ED0104B1F
:101A20009A420BD00F4B9A4208D00F4B9A4205D0E6
:101A30000E4B9A4202D00E4B9A4204D1496825F0CF
:101A400080031943916080F83D40002180F83C10EC
:101A5000084670BD022070BD000001400004004037
:101A600000080040000C004000040140004001401C
:101A70000018004010B5040003D094F83D0010B1E8
:101A800007E0012010BD002084F83C00204600F053
:101A90001EF8022084F83D00211D206800F066FD3C
:101AA000012084F8460084F83E0084F83F0084F862
:101AB000400084F8410084F8420084F8430084F830
:101AC000440084F8450084F83D00002010BD7047B4
:101AD00090F83D10012901D001207047022180F8C3
:101AE0003D100168CA6842F00102CA6000681149ED
:101AF000884214D0B0F1804F11D00F4988420ED0E7
:101B00000E4988420BD00E49884208D00D498842C0
:101B100005D00D49884202D00C49884204D1816821
:101B200001F00701062903D0016841F001010160BD
:101B30000020704700000140000400400008004001
:101B4000000C00400004014000400140001800402B
:101B500070472DE9F04104460068C66805694FF0FA
:101B60000007A90713D5B10711D5F91E016101209E
:101B70002077206880698007204602D0FFF7E8FFC1
:101B800004E000F0A7F8204600F04CF9277768073A
:101B900016D5700714D521686FF004000861022083
:101BA00020772068806910F4407F204602D0FFF73C
:101BB000CFFF04E000F08EF8204600F033F92777DD
:101BC000280715D5300713D521686FF00800086184
:101BD000042020772068C0698007204602D0FFF7E4
:101BE000B7FF04E000F076F8204600F01BF92777F5
:101BF000E80616D5F00614D521686FF010000861CC
:101C0000082020772068C06910F4407F204602D069
:101C1000FFF79EFF04E000F05DF8204600F002F9B7
:101C20002777E80708D0F00706D021686FF0010099
:101C30000861204600F0F7F8280608D5300606D5DA
:101C400021686FF0800008612046FFF7C9FE680632
:101C500008D5700606D521686FF04000086120465F
:101C600000F0E8F8A8060AD5B00608D521686FF09C
:101C7000200008612046BDE8F041FFF7B2BEBDE894
:101C8000F081000010B586B0044614216846FEF7C6
:101C900024FC0D492068884214D10C4800210268B8
:101CA00042F004020260006800F004000590802009
:101CB00000900220CDE90101CDE9031069460448F6
:101CC000FFF76EF906B010BD000400403038024046
:101CD00000080240704770B5044690F83C000026AA
:101CE0000D4601280FD0012084F83C006AB1042A77
:101CF0001DD0082A2FD00C2A3FD00126002084F8BE
:101D00003C00304670BD022070BD206800F096FC9B
:101D10002068816941F0080181612068816921F0B2
:101D200004018161206881692A69114311E02068FA
:101D300000F0B4FC2068816941F400618161206891
:101D4000816921F480618161206881692A6941EAA1
:101D500002218161D2E7206800F0D6FC2068C169C9
:101D600041F00801C1612068C16921F00401C1612D
:101D70002068C1692A69114311E0206800F0F8FC6D
:101D80002068C16941F40061C1612068C16921F422
:101D90008061C1612068C1692A6941EA0221C1618B
:101DA000ACE710B5040003D094F83D0010B107E093
:101DB000012010BD002084F83C00204600F01EF8F1
:101DC000022084F83D00211D206800F0CFFB012097
:101DD00084F8460084F83E0084F83F0084F8400010
:101DE00084F8410084F8420084F8430084F84400F9
:101DF00084F8450084F83D00002010BD08B5006857
:101E00000649884208D10648016841F00201016094
:101E1000006800F00200009008BD000000040040CF
:101E20004038024070470068B0F1804F01D1FFF7A1
:101E3000BBB970477047704770470000F8B501683C
:101E400004460868CA684B6910F00F0F4FF0000590
:101E500059D003F0010602F49077374365D0C107EB
:101E600005D0D10503D5616C41F0010161644107E2
:101E700005D5D90703D0616C41F002016164810787
:101E800005D5D90703D0616C41F0040161640107F5
:101E900007D502F02001314303D0616C41F0080105
:101EA0006164616C00293AD0800604D5900602D5A1
:101EB000204600F0B3FC20684069616CC0F38010DC
:101EC000090700D460B3204600F081FC2068406917
:101ED000400621D52068143050E8001F21F0400151
:101EE00040E80012002AF5D1E06BA8B17249016503
:101EF000E06BFFF742F8002811D0E06B016D01B0F4
:101F0000BDE8F040084783060FD593060DD520465F
:101F1000BDE8F84000F082BC2046FFF78DFFF8BD19
:101F20002046FFF789FF6564F8BD266B2023012E4C
:101F30007ED1C6067CD5D6067AD50868486800905A
:101F400048694FF0020640064DD5E26B10684068C4
:101F50004FF480770004000C3AD0A18D814237D92C
:101F6000E085D069B8422DD020680C3050E8001FC1
:101F700021F4807140E80012002AF5D12068143065
:101F800050E8001F21F0010140E80012002AF5D1BD
:101F90002068143050E8001F21F0400140E8001292
:101FA000002AF5D184F84230256320680C3050E8CF
:101FB000001F21F0100140E80012002AF5D1E06B6B
:101FC000FEF792FF6663A08DE18D401A81B206E0B4
:101FD000A18D8142A8D1D069B842A5D166632046BF
:101FE000FFF729FFF8BDA08DE18D401A81B2E08D89
:101FF0000028F7D00029F5D020680C3050E8002FD9
:1020000022F4907240E80027002FF5D120681430A8
:1020100050E8002F22F0010240E80027002FF5D100
:1020200084F84230256320680C3050E8002F00E02F
:1020300006E022F0100240E80023002BF3D1CDE7A8
:1020400005062BD5150629D594F841002128C9D1BC
:10205000A068B0F5805F01D12069B0B1206A411C51
:102060002162216800784860E08C401E0004000C6A
:10207000E084B7D12068C16821F08001C160206888
:10208000C16841F04001C160F8BD206A0088C0F31A
:1020900008004860206A801C2062E5E74006F3D50E
:1020A0005006F1D5CA68204622F04002CA6084F882
:1020B000413000F0C4F8F8BDC127000870B5040035
:1020C00004D094F84100002510B106E0012070BD55
:1020D00084F84050204600F023F8242084F8410082
:1020E0002068C16821F40051C160204600F0F8FB6F
:1020F0002068016921F4904101612068416921F063
:102100002A0141612068C16841F40051C1606564E1
:10211000202084F8410084F842006563002070BDEF
:1021200010B586B0044614216846FEF7D6F9184962
:102130002068884229D117480021026842F0100225
:102140000260006800F01000059012481438026820
:1021500042F001020260006800F0010005904FF4B7
:10216000C06000900220CDE9010103200390072008
:10217000049069460848FEF713FF00220521252038
:10218000FFF7AAF82520FFF799F806B010BD000068
:1021900000100140443802400000024070472DE921
:1021A000F843044690F84100984616460D4620280C
:1021B00002D00220BDE8F88385B17EB100206064C2
:1021C000212084F84100FEF7E9FFA6848146E684D9
:1021D000A0682027B0F5805F02D003E00120E9E786
:1021E000206910B12E4600250EE000260CE080216B
:1021F000204600F0FBFBA8B9C6B116F8010B216818
:102200004860E08C401EE084E08C4B464FF00002BA
:10221000CDF800800028EAD14FF04001204600F0C0
:10222000E5FB40B184F841700320C3E735F8020BA9
:10223000C0F30800E3E784F841700020BAE7704774
:10224000FEE7000010B5194A0221032000F08EFCC1
:10225000174C164A0221606118320A2000F086FCF1
:10226000124AA061B43A0021124800F0ABFC0F4AB8
:102270002060903A0021104800F0A4FC0B4A6060F6
:102280006C3A00210D4800F09DFC084AA060483AD5
:1022900000210B4800F096FC044AE060243A00213B
:1022A000084800F08FFC206110BD000018440008B1
:1022B000000000208F24000899240008DB0E00088D
:1022C000D30E0008872400082DE9F04186B01421C0
:1022D0006846FEF702F92C480024016841F08001AD
:1022E0000160016801F080010591016841F0010180
:1022F0000160016801F001010591016841F00201EE
:102300000160016801F002010591016841F00401DA
:10231000016000681D4F00F004004FF488760590BE
:10232000002231463846FEF733FFDFF86480002292
:1023300040F644414046FEF72BFF0125CDE900540D
:10234000694638460294FEF72BFE0096CDE901540B
:10235000694638460394FEF723FE44200090CDE9F9
:102360000154694640460394FEF71AFE4FF440605C
:10237000009011200394CDE9010569464046FEF71F
:102380000FFE06B0BDE8F081303802400000024088
:10239000000402400F4810B50D4901604FF48271EE
:1023A000416000218160C1604FF400720161C0E9A9
:1023B0000512C1610162416281620A21C162FFF7B7
:1023C0007DFA002803D0BDE81040FEF78BBD10BD9C
:1023D000003001404013002010B58AB0002407945B
:1023E0001C2168460894FEF778F8174815490160E3
:1023F00040F22B11C0E901144FF6FF71C0E903143C
:102400008461FFF7CEFC08B1FEF76CFD079407A9C5
:102410000D480894FFF7E6FA08B1FEF763FD602067
:10242000CDE9000402940422694607480494FFF7AA
:1024300052FC08B1FEF756FD0348FFF723FC0AB033
:1024400010BD000000040040981300200C4810B597
:102450000A4901604FF4E1314160002181600C22A2
:10246000C160C0E904128161C161FFF727FE002845
:1024700003D0BDE81040FEF735BD10BD001001408F
:10248000E0130020FEE7012000F034FBFBE7012011
:1024900000F030FBFBE7FEE7012000F02BFBFBE741
:1024A00010B54FF0E020006901F0A0FD012803D035
:1024B000BDE8104001F0AEBA10BD000030B593B0D9
:1024C00030216846FEF709F814210CA8FEF705F83C
:1024D0001D480025016841F080510160006800F04E
:1024E000805011901948016841F4804101600068F2
:1024F000022400F48040119001200090000401901B
:102500008001CDE9064008AA0420A82182E8130032
:102510000B906846FFF71CF808B172B6FEE70CA9ED
:102520000F2081E831004FF4A0500F904FF48050FD
:10253000109005210CA8FEF701FF002801D072B60B
:10254000FEE713B030BD000040380240007000408C
:102550000248016841F470010160704788ED00E0B5
:102560000148FFF7F6BA000028140020F0B5026811
:10257000274B284D284E294F294C4FF0804C98422C
:1025800009D0604507D0A84205D0B04203D0B84278
:1025900001D0A04204D122F0700E4A6842EA0E0235
:1025A00098421BD0604519D0A84217D0B04215D030
:1025B000B84213D0A04211D01A4DA8420ED01A4DE5
:1025C000A8420BD0194DA84208D0194DA84205D0F9
:1025D000184DA84202D0184DA84203D122F44075EC
:1025E000CA682A434D6922F080022A438D68C56279
:1025F0000D688562984201D0A04201D1096901634A
:10260000016841F004010160012141610260F0BDF7
:10261000000001400004004000080040000C0040A1
:1026200000040140004001400044014000480140D6
:1026300000180040001C004000200040F0B5036A74
:10264000026A22F00102026242688469124E24F09A
:1026500073050C682C4323F002058B682B430D4D4A
:10266000A84201D0B04205D123F00807CB683B4314
:1026700023F00403A84201D0B04205D14D6922F4F1
:10268000407215438A692A43426084614968416304
:102690000362F0BD0000014000040140F0B5026A91
:1026A000036A23F010030362436884690D6824F40D
:1026B000E64444EA05248D6822F0200242EA05122D
:1026C0000F4D104EA84201D0B04206D1CF6822F083
:1026D000800242EA071222F04002A84201D0B04232
:1026E00007D14D6923F4406343EA85038D6943EACA
:1026F000850343608461496881630262F0BD000024
:102700000000014000040140F0B5026A036A23F4AE
:10271000807303624368C46922F4007224F0730575
:102720000C68124E2C438D6842EA05220E4DA842D9
:1027300001D0B04206D1CF6822F4006242EA0722FB
:1027400022F48062A84201D0B04207D14D6923F43F
:10275000405343EA05138D6943EA05134360C4619E
:102760004968C1630262F0BD0000014000040140FD
:1027700030B5046A026A22F4805202624268C36978
:102780000D6823F4E64343EA05238D6824F40054DE
:1027900044EA0534084DA84202D0084DA84204D1AD
:1027A0004D6922F4804242EA85124260C361496861
:1027B0000164046230BD00000000014000040140DB
:1027C00010B5806B0021C185FFF736FB10BD016895
:1027D0000C3151E8002F22F4907241E80023002BC5
:1027E000F5D10168143151E8002F22F0010241E8CF
:1027F0000023002BF5D1016B012909D101680C31AF
:1028000051E8002F22F0100241E80023002BF5D1FF
:10281000202180F8421000210163704708B590F82C
:102820004210222901D0022008BD82684FF4805353
:102830009A4201D1016921B1816A9A421BD04AB101
:102840000AE00268816A5268C2F308020A80816A5B
:10285000891C08E0026972B10268526802F07F02C6
:102860000A70816A491C8162C18D491E0904090CE4
:10287000C18503D01BE002685268F1E70168CA68AD
:1028800022F02002CA600168CA6822F48072CA601D
:1028900001684A6922F001024A61202180F8421051
:1028A00000214163026B012A03D0FFF777FC00206F
:1028B00008BD016301680C3151E8002F22F01002BD
:1028C00041E80023002BF5D101680A68D20602D541
:1028D0000A6849680091818DFFF7ADFAE7E70000CB
:1028E00070B5044600680169E26821F44051114363
:1028F00001612169A068E2690843616911430843E5
:102900002168CA6849F20C639A430243CA6020688E
:102910004169A26921F44071114341613149206844
:10292000884202D03049884202D1FEF7D1FD01E051
:10293000FEF7BEFDE2690023192164253226B2F5B7
:10294000004F626828D0A0FB0101930F9200FDF7B1
:10295000F3FC0146B0FBF5F06FF01802504301EBB9
:10296000800006EB0010B0FBF5F000F0F002B1FBC8
:10297000F5F002EB0012B1FBF5F06FF018035843CD
:1029800001EB800006EB0010B0FBF5F000F00F004B
:1029900021681044886070BDA0FB010192185B4162
:1029A000FDF7CAFC0146B0FBF5F00201B1FBF5F002
:1029B0006FF01803584301EB800006EBC000B0FB3A
:1029C000F5F000F0F80002EB4002B1FBF5F05843DF
:1029D00001EB800006EBC000B0FBF5F000F0070053
:1029E000D6E7000000100140001401402DE9F84333
:1029F000984617460D460446089E24E0701C22D0D7
:102A0000FEF7CCFBA0EB0800B0421AD8CEB120688C
:102A1000C168490717D5802D15D0402D13D0016806
:102A2000C94309070FD4016800254068009020467B
:102A3000FFF7CDFE0820606484F840500120BDE817
:102A4000F8830320FBE72068006835EA000004D023
:102A50000020B842D2D00020F1E70120F9E70000C1
:102A60000148FFF7EBB90000E0130020FEE709077B
:102A7000090E002804DB00F1E02080F80014704704
:102A800000F00F0000F1E02080F8141D70470000F6
:102A900013B54FF0FF33012269460248FFF77FFB71
:102AA00000981CBDE0130020FEF786FBFFF706FD33
:102AB000FFF70AFCFFF7CAFCFFF76CFCFFF78CFC82
:102AC00004A0FDF7B1FC00F023F8FFF7BBFB00F01A
:102AD00031F8FEE753544D333246342055415254B9
:102AE000205072696E7466204578616D706C650D5A
:102AF0000A00000010B5EFF3058111B16FF0050475
:102B000003E0002408B100F025FE204610BD0000BF
:102B1000EFF3058010B16FF00500704704480168BD
:102B200011B14FF0FF307047012101600020704764
:102B30008400002010B5EFF3058010B16FF00500A0
:102B400010BD08480168012902D04FF0FF3010BDC8
:102B5000054A002182F8141D0221016000F062FE86
:102B6000002010BD840000200BE000E0F8B5144602
:102B70004FF00005EFF3058212BB08B301B3A4B117
:102B8000D4E9023263B1502A1AD32269C2B167690B
:102B900000FB01F6B74213D3009500F072FF07E087
:102BA00072B9226962B9626952B9002200F048FF25
:102BB000050005D00CB1216800E0002100F094FD73
:102BC0002846F8BD2DE9FF414FEA01034FF000050B
:102BD000EFF30581039549BB40B3802718210024FA
:102BE0004AB3166806B1344696691EB13146761E60
:102BF000382E02D21679F60703D0002004B0BDE8C3
:102C0000F081566906B1B708D2F808C0BCF1000FD0
:102C10000DD0D5685C2D18D312693AB136B18DE864
:102C200006103A46214601F0B6F903900DE0D66849
:102C30005EB912694AB903AACDE90012BAB22146B7
:102C400001F07CF9012800D003950398D6E7000035
:102C50002DE9F041134C0F460546E6682068001D3B
:102C600000F044FC681C07D137B12168BDE8F04191
:102C70000D48091D00F08ABC20683544B542456006
:102C8000216805D2A06BBDE8F041091D00F066BCCB
:102C9000606B091D00F062FCA06A854200D2A5624B
:102CA000BDE8F08134000020601900202DE9F041DA
:102CB000054600F077FC2D4CA068401CA060206801
:102CC0002B4F10B1606930B32BE02560A06801285C
:102CD00027D1002606EB860007EB800000F030FCD1
:102CE000761C382EF6D3234800F02AFC21481430F5
:102CF00000F026FC1F48283000F022FC1D483C3024
:102D000000F01EFC1B48503000F01AFC19486063AC
:102D10001430A06305E02068E96AC06A884200D8E0
:102D20002560606A401C60626864E86A21698842C4
:102D300000D9206100EB800007EB8000291D00F026
:102D400025FC00F04FFC606900280CD02068E96A7F
:102D5000C06A884207D208494FF080500860BFF32C
:102D60004F8FBFF36F8FBDE8F0810000340000206B
:102D7000B01400201019002004ED00E038B500F078
:102D800011FC104C2068C8B90F4800F0D9FB0E4860
:102D9000143000F0D5FB0C48E060143020610A4B81
:102DA0000020F03B009003F1500210210A2000F0B7
:102DB00068FE206010B105A100F096FCBDE8384027
:102DC00000F010BC70000020641A0020546D725195
:102DD0000000000030B4026C0B46002A0BD0C16822
:102DE0001144C1608468A14201D30168C16030BC54
:102DF0001846FDF725BB30BC70472DE9F041856BC7
:102E0000174604460026026C82B1C7B1E068FDF7A0
:102E100017FBE168206C091AE1602268914202D236
:102E2000A168081AE060022F16D017E02068A8B940
:102E3000A06801F053F906460020A0600EE060682B
:102E4000FDF7FEFA216C606808446060A168884262
:102E500004D32068606001E005B16D1E6D1CA563A0
:102E60003046BDE8F08110B5044690F8590058B1DD
:102E700001280CD002280FD0502080F31188BFF316
:102E80004F8FBFF36F8FFEE7206B00F0BFFB204634
:102E9000BDE8104000F0BABB10BD000010484FF470
:102EA0002051420706D0C01D0D4920F00700411AED
:102EB000C1F520510B4A00230144C2E9000308393F
:102EC000183A21F0070111604B600B600B1AC0E942
:102ED000001393604FF00040536050617047000052
:102EE00044210020A0000020144E154CA6F29C475F
:102EF0004FF08058DFF84C9012E000BF00F052FB1A
:102F0000F068C568281D00F0F1FAA068401EA060B6
:102F10006068401E606000F065FB2846FFF7A3FF75
:102F200060680028EAD138680128F9D9C9F800801A
:102F3000BFF34F8FBFF36F8FF2E700004C190020F3
:102F40003400002004ED00E070B51D46049C51B132
:102F5000C4F80020C4E90F010121204600F0C4FD9F
:102F600084F84C5070BD2460F4E700002DE9F05F58
:102F70008846DDE90B941546834691009A460A9EE1
:102F8000A522206BFDF7A1FA6FF00301206B01EB86
:102F90008501084420F00707780707D0502080F308
:102FA0001188BFF34F8FBFF36F8FFEE70025B8F195
:102FB000000F0FD05FF00000221818F8001082F800
:102FC000341018F8001011B1401C1028F4D384F804
:102FD000435001E084F83450382E00D33726E6629F
:102FE000C4E91365201D00F0B6FA04F1180000F0E2
:102FF000B2FA2461C6F138006462A061656584F8A4
:10300000585052465946384600F05AFA2060B9F1F5
:10301000000F01D0C9F80040BDE8F09F30B511495C
:1030200000E011460A688242FBD34B685C18844278
:1030300003D1406818444860084643681C1894420D
:1030400009D1084C183C2468A24209D052681A449D
:1030500042600A6812680260814200D0086030BD98
:103060000460F9E7A000002070B5002441600B4D1A
:103070000061914206D8D11A8269914206D2011D9F
:10308000286907E09A4203D2994201D3012403E060
:10309000011DE86800F062FA204670BD7000002053
:1030A00010B5044600F07EFAA06B28B15FF0000472
:1030B00000F098FA204610BD0124F9E730B589B038
:1030C0003C4D6EE00498002806DADDE90601059A19
:1030D00090470498002864DB069C606910B1201DAD
:1030E00000F004FA03A800F0D7F8024604980A2872
:1030F00057D2DFE800F00505052D334A05052D33CD
:1031000094F8280040F0010084F828000599A0698F
:10311000059B01442046FFF7A7FF68B3216A2046BC
:10312000884794F8280040073BD500200090059878
:10313000A169002342181946204601F0D9F8D8B9F0
:10314000502080F31188BFF34F8FBFF36F8FFEE7DE
:1031500014F8280F20F00100207022E094F82800D5
:1031600040F0010084F828000598A06128B181187A
:1031700013462046FFF778FF13E0502080F31188B4
:10318000BFF34F8FBFF36F8FFEE794F828008107DE
:1031900003D4204600F03AFA03E020F0010084F85E
:1031A0002800002204A9286800F0F2FD002889D137
:1031B00009B030BD700000202DE9FC410F460546E6
:1031C00000F074FB01A800F067F80446019818B1FC
:1031D00000F0FCFFBDE8FC81254EAFB1306900680E
:1031E000D0B30027291B3A46306800F091FA00F06E
:1031F000EDFF0028EED11F494FF080500860BFF36B
:103200004F8FBFF36F8FE5E7A542EBD800F0DEFFED
:10321000F0682746C068C468201D00F067F994F87C
:103220002800410719D5A0692B4641193A46204686
:10323000FFF71AFFA8B100200346014600902A4676
:10324000204601F055F860B9502080F31188BFF393
:103250004F8FBFF36F8FFEE707E020F0010084F887
:103260002800216A20468847B4E70127BAE7000012
:103270007000002004ED00E00648416B096829B1A8
:10328000416BC968C9684968816270474FF0FF3176
:10329000FAE700003400002070B5054600F0B4FEE7
:1032A000064E0446B068844203D200F009F80120BB
:1032B00000E0002028602046B46070BD700000204F
:1032C000F8B5194D20E0C068C4680668201D00F0FC
:1032D0000DF9216A2046884794F82800400713D545
:1032E000A0693044B04206D924616060211DE868BD
:1032F00000F034F908E00020034601460090324611
:10330000204600F0F5FF38B1E86801680029DAD1FD
:103310002969C5E90310F8BD502080F31188BFF377
:103320004F8FBFF36F8FFEE77000002008484068A2
:10333000401C4FF0500080F3118804D0BFF34F8F32
:10334000BFF36F8FFEE7BFF34F8FBFF36F8FFEE7C3
:10335000A8000020074CE068016841B1C068002166
:10336000D0F80000FFF728FFFFF7A8FEF3E70121E0
:103370000020F7E7700000202DE9F041044600F03E
:1033800011F994F9455004F1240609E0606A48B146
:10339000304600F0E3FE08B100F00AFA6D1E6DB28F
:1033A000002DF3DC4FF0FF3684F8456000F01AF989
:1033B00000F0F8F894F9445004F1100709E020698E
:1033C00048B1384600F0CAFE08B100F0F1F96D1EB0
:1033D0006DB2002DF3DC84F84460BDE8F04100F0EC
:1033E00001B900002DE9F0410546002700F05EFA22
:1033F000324E306808B9FFF751FD706905424ED171
:10340000C5B3083568070ED005F00700C0F1080005
:103410000544680707D0502080F31188BFF34F8F11
:10342000BFF36F8FFEE72DB37068854237D823480E
:10343000183001460C6801E020460C466168A9423C
:1034400002D221680029F7D131688C4227D0076861
:103450002168016060680837411B10290FD9601985
:10346000420708D0502080F31188BFF34F8FBFF37D
:103470006F8FFEE713E041606560FFF7CFFD616885
:103480007068401A7060B268904200D2B060706993
:1034900001430020C4E90001F068401CF06000F026
:1034A00095FE780707D0502080F31188BFF34F8F27
:1034B000BFF36F8FFEE73846BDE8F081880000203B
:1034C00010B5031F4FF080741C601B1F21F0010119
:1034D0001960191F044B0B6014390A60091F6FF043
:1034E000020244380A6010BD2D330008D0E90132D1
:1034F00001699A60D0E901235A604A68824201D189
:1035000082684A60002202610868401E08600868FC
:1035100070470000034B036003F15C0008608020EB
:10352000106070478C1A0020044B036003F15C00AC
:1035300008604FF48070106070470000E81C0020A5
:1035400000F108014FF0FF32C0E90112C1600161D2
:1035500000210160704700210161704730B50B68A0
:103560005A1C02D000F1080202E0026904E022467F
:10357000546825689D42FAD953684B6099608A6007
:10358000516008610168491C016030BD42684A60B1
:1035900093688B6093685960916008610168491C69
:1035A00001607047502080F31188BFF34F8FBFF345
:1035B0006F8F0A494868401C486001280CD10848B0
:1035C000006810F0FF0F07D0502080F31188BFF380
:1035D0004F8FBFF36F8FFEE770470000A8000020F9
:1035E00004ED00E00849486828B1401E486001D158
:1035F00080F311887047502080F31188BFF34F8FFC
:10360000BFF36F8FFEE70000A800002070B5002810
:103610002AD0164DA0F1080460686969084207D1F4
:10362000502080F31188BFF34F8FBFF36F8FFEE7F9
:1036300022683AB1502080F31188BFF34F8FBFF357
:103640006F8FFEE78843606000F030F9606869685A
:10365000084468602046FFF7E1FC2869401C2861A7
:10366000BDE8704000F0B2BD70BD000088000020D1
:103670004FF0E02000210161816105494FF47A7229
:103680000968B1FBF2F1491E4161072101617047F0
:103690003000002010B5FCF72BFE114910280ED386
:1036A00000F1E02090F8F0030A78904207D2502011
:1036B00080F31188BFF34F8FBFF36F8FFEE7094888
:1036C0000068896800F4E060884207D9502080F3E0
:1036D0001188BFF34F8FBFF36F8FFEE710BD00005F
:1036E000A80000200CED00E010B5084B002200BF40
:1036F00053F832401CB1521C082AF9D310BD43F8CC
:10370000321003EBC201486010BD000070140020AD
:1037100070B515460E460446FFF744FF94F9441071
:103720000020491C01D184F8440094F94510491C3B
:1037300001D184F84500FFF755FFA06B28B92A4650
:10374000314604F1240000F051F82046BDE87040F5
:10375000FFF712BE10B5020014D00F48006B38B14D
:10376000502080F31188BFF34F8FBFF36F8FFEE7B8
:1037700000F09CF800211046FFF76AFA00F026FDE1
:10378000002807D105494FF080500860BFF34F8FE4
:10379000BFF36F8F10BD00003400002004ED00E087
:1037A00002490A6A0260C96841607047340000201B
:1037B00001490120C86170473400002010B50C4653
:1037C00050B1094909681831FFF7C8FE2046BDE825
:1037D00010400121FFF73CBA502080F31188BFF35D
:1037E0004F8FBFF36F8FFEE73400002070B5144693
:1037F0000D4668B10A4909681831FFF7C7FE0CB1D8
:103800004FF0FF3521462846BDE87040FFF720BA4B
:10381000502080F31188BFF34F8FBFF36F8FFEE707
:103820003400002030B587B00024039405AA04A911
:1038300003A80494FFF76EFEDDE903010094CDE9CF
:103840000110002315A11748059A00F0A4FB164D9E
:103850000028E8621FD000F01BFD012809D0401CA1
:1038600019D1502080F31188BFF34F8FBFF36F8FB2
:10387000FEE7502080F31188BFF34F8FBFF36F8FA7
:103880004FF0FF30A86201206861EC6007B0BDE82E
:10389000304000F045B807B030BD000049444C4509
:1038A00000000000E92E0008340000200248016BEF
:1038B000491C01637047000034000020164810B511
:1038C000016B11B10121C16110BD0021C16101690C
:1038D000124A01E0B9B1491E01EB810352F82330CD
:1038E000002BF7D001EB810302EB830202F1080405
:1038F00053685B685360A34201D15B685360DA6828
:103900000260016110BD502080F31188BFF34F8F1A
:10391000BFF36F8FFEE7000034000020B0140020DA
:103920001CB537480168374A914207D1502080F3CF
:103930001188BFF34F8FBFF36F8FFEE700683149E7
:10394000491E884207D1502080F31188BFF34F8F62
:10395000BFF36F8FFEE72C4908780190FF200870B5
:1039600008788DF800009DF800009DF8002000F018
:10397000F000904207D0502080F31188BFF34F8FA2
:10398000BFF36F8FFEE79DF80000204C00F0500061
:1039900020700720A06005E09DF8002052008DF8FF
:1039A0000020401E9DF800201206F5D4A0600328D8
:1039B00007D0502080F31188BFF34F8FBFF36F8F74
:1039C000FEE74FF44070A060019808700C4820306A
:1039D000016841F470010160016841F070410160CB
:1039E000FFF746FE00206060FCF74AFC08480168CB
:1039F00041F040410160FCF72FFC00201CBD00009D
:103A000000ED00E071C20F4100E400E0A8000020DA
:103A100034EF00E010B5502080F31188BFF34F8FD2
:103A2000BFF36F8F00F0F6FA18B104494FF08050E1
:103A30000860002080F3118810BD000004ED00E054
:103A4000F8B517460E46050013D005FB06F05030BA
:103A5000FFF7C8FC04000AD0002084F8460004F1F7
:103A600050023B46314628460094FFF76DFA204647
:103A7000F8BD502080F31188BFF34F8FBFF36F8FD5
:103A8000FEE738B5049D18B153B1CAB181B120E049
:103A9000502080F31188BFF34F8FBFF36F8FFEE785
:103AA000502080F31188BFF34F8FBFF36F8FFEE775
:103AB000502080F31188BFF34F8FBFF36F8FFEE765
:103AC00039B1502080F31188BFF34F8FBFF36F8F50
:103AD000FEE750241C46012384F846302B46009410
:103AE000FFF732FA204638BD70B50D46040025D0E8
:103AF000FFF758FDD4E90F20216802FB0011A160F7
:103B00000021A163216861600A46D4E90F01401ECB
:103B100000FB0121E16021464FF0FF3001F8440F26
:103B2000487004F110008DB1FFF70AFD04F1240084
:103B3000FFF706FDFFF756FD012070BD502080F312
:103B40001188BFF34F8FBFF36F8FFEE72169002904
:103B5000F0D000F003FB0028ECD004494FF0805077
:103B60000860BFF34F8FBFF36F8FE3E704ED00E012
:103B70002DE9FF4782B01D468A464FF00008040039
:103B800003D0BAF1000F08D011E0502080F3118863
:103B9000BFF34F8FBFF36F8FFEE7206C38B150201B
:103BA00080F31188BFF34F8FBFF36F8FFEE7022DB5
:103BB0000AD1E06B012807D0502080F31188BFF3B1
:103BC0004F8FBFF36F8FFEE700F010FA3F4F4FF0BB
:103BD00000094FF0805648B9049838B1502080F35E
:103BE0001188BFF34F8FBFF36F8FFEE7FFF7DAFC4B
:103BF000A06BE16B884207D3022D05D00498D0B1A9
:103C0000B8F1000F1AD01EE02A4651462046FFF7B1
:103C1000F4F8616A19B104F1240000F09FFA20B1B0
:103C20003E60BFF34F8FBFF36F8FFFF7DBFC0120C8
:103C300006B0BDE8F087FFF7D5FC22E06846FFF745
:103C4000AFFD4FF00108FFF7CDFCFFF72FFEFFF7A8
:103C5000A9FC94F94400401C01D184F8449094F9E3
:103C60004500401C01D184F84590FFF7BBFC04A936
:103C7000684600F029F930B12046FFF77DFB00F0DF
:103C8000A5FA0020D4E7FFF78DFCA06BE16B88421A
:103C900013D1FFF7A7FC04F110000499FFF78EFD84
:103CA0002046FFF769FB00F091FA00289ED13E60A4
:103CB000BFF34F8FBFF36F8F98E7FFF793FC20465A
:103CC000FFF75AFB00F082FA90E7000004ED00E0F5
:103CD0002DE9F0471F4690468946040003D0B9F10C
:103CE000000F08D011E0502080F31188BFF34F8FF0
:103CF000BFF36F8FFEE7206C38B1502080F311883E
:103D0000BFF34F8FBFF36F8FFEE7022F0AD1E06B37
:103D1000012807D0502080F31188BFF34F8FBFF3E5
:103D20006F8FFEE7FFF7B6FC5020EFF3118680F3AC
:103D30001188BFF34F8FBFF36F8FA06BE16B884289
:103D400006D3022F04D0002086F31188BDE8F08747
:103D500094F94550A06B3A4649462046FFF74DF886
:103D6000681C04D06D1C84F845500120ECE7606AA3
:103D70000028FAD004F1240000F0F0F90028F4D073
:103D8000B8F1000FF1D00121C8F80010EDE70000F4
:103D90002DE9F747002683B08A46040003D0BAF124
:103DA000000F08D011E0502080F31188BFF34F8F2F
:103DB000BFF36F8FFEE7206C38B1502080F311887D
:103DC000BFF34F8FBFF36F8FFEE700F00FF9DFF8FF
:103DD000F4804FF000094FF0805748B9059838B18A
:103DE000502080F31188BFF34F8FBFF36F8FFEE732
:103DF000FFF7D8FBA56BC5B151462046FEF7EAFF99
:103E00006D1EA563206950B104F1100000F0A6F901
:103E100028B1C8F80070BFF34F8FBFF36F8FFFF763
:103E2000E1FB012006B0BDE8F087059808B11EB19E
:103E300006E0FFF7D7FB27E06846FFF7B1FC012655
:103E4000FFF7D0FBFFF732FDFFF7ACFB94F944001E
:103E5000401C01D184F8449094F94500401C01D1E4
:103E600084F84590FFF7BEFB05A9684600F02CF8E2
:103E7000002820460AD0FFF77FFA00F0A7F9204675
:103E8000FFF70EF90028B3D00020CBE7FFF708F9C1
:103E900090B104F124000599FFF790FC2046FFF74C
:103EA0006BFA00F093F90028A2D1C8F80070BFF3B4
:103EB0004F8FBFF36F8F9BE72046FFF75DFA00F04F
:103EC00085F995E704ED00E02DE9F0410C46050089
:103ED00011D0C4B1FFF766FB174BDA686E68206833
:103EE000911B471C17D02F681B6A9F4219D096421E
:103EF00017D8012410E0502080F31188BFF34F8FB2
:103F0000BFF36F8FFEE7502080F31188BFF34F8F10
:103F1000BFF36F8FFEE70024FFF764FB2046BDE888
:103F2000F081884205D9401A20602846FFF738FC06
:103F3000F1E700202060DCE7340000202DE9FF5F7E
:103F40008346DDE90E87994616468A469000FFF7BC
:103F500049FA05001CD05C20FFF744FA040014D095
:103F60000020256384F85900CDE90240CDE900879F
:103F70004B46324651465846FEF7F8FF2046FEF7BC
:103F800095FE012004B0BDE8F09F2846FFF73EFBF8
:103F90004FF0FF30F6E7F0B585B0DDE90B640A9D20
:103FA000A6B1DCB15C2700972663022684F859602D
:103FB000002604AFCDE90246CDE90057FEF7D6FF53
:103FC0002046FEF773FE049805B0F0BD502080F344
:103FD0001188BFF34F8FBFF36F8FFEE7502080F340
:103FE0001188BFF34F8FBFF36F8FFEE7054841691C
:103FF00019B1006B18B100207047012070470220F2
:1040000070470000340000200148C068704700007D
:10401000340000202DE9F0412E4C0027206B28B100
:10402000A069401CA0613846BDE8F081E668761CB6
:10403000E66013D1606B006838B1502080F31188BE
:10404000BFF34F8FBFF36F8FFEE7606BA16B6163B0
:10405000A063206A401C2062FFF70EF9A06ADFF817
:104060007880864209D3606B0068A0B1606BC0683D
:10407000C5686868864211D2A0622068C06A00EBF9
:10408000800158F82100012800D90127E0690028A3
:10409000C9D00127C7E74FF0FF30EDE7281DFFF734
:1040A00025FAA86A18B105F11800FFF71FFAE86AA7
:1040B0002169884200D9206100EB800108EB810072
:1040C000291DFFF763FAE86A2168C96A8842CAD3E2
:1040D0000127C8E734000020B014002070B50400A8
:1040E0004FF0000133D01B4D2868844207D0502088
:1040F00080F31188BFF34F8FBFF36F8FFEE7206D02
:1041000038B1401E2065E36CE26A9A421FD040B18C
:104110001DE0502080F31188BFF34F8FBFF36F8FE6
:10412000FEE7201DFFF7E2F9E06CE062C0F1380025
:10413000A061E06A2969884200D92861064900EB3C
:10414000800001EB8000211DFFF720FA01210846C5
:1041500070BD000034000020B014002070B5C068AD
:10416000C46854B104F118000646FFF7BFF9144DB6
:10417000286B50B13146134815E0502080F3118868
:10418000BFF34F8FBFF36F8FFEE7201DFFF7AEF930
:10419000E06A2969884200D928610B4900EB800058
:1041A00001EB8000211DFFF7F1F9E06A2968C96A77
:1041B000884202D90120E86170BD002070BD000076
:1041C0003400002038190020B01400202DE9F047F9
:1041D0002C4D00242746286B38B1FFF7E3F9286BF4
:1041E000401E2863286B40B146E0502080F31188C0
:1041F000BFF34F8FBFF36F8FFEE7A968224E0120F8
:10420000D1B3A6F5916980463068E0B1F068C46822
:1042100004F11800FFF76AF9201DFFF767F9E06A5B
:104220002969884200D9286100EB800109EB8100EF
:10423000211DFFF7ABF9E06A2968C96A8842E3D318
:10424000C5F81C80E0E70CB1FFF716F8AC694CB17B
:104250004FEA0806FFF7DEFE00B1EE61641EF9D1F9
:104260000020A861E86938B10849012738070860CB
:10427000BFF34F8FBFF36F8FFFF7B4F93846BDE838
:10428000F0870000340000203819002004ED00E021
:1042900010B586B0FEF772FD114C2068B8B1002051
:1042A0000390049005AA04A903A8FFF73DF9DDE9EE
:1042B000032102208DE8070000230AA10B48059A7C
:1042C000FFF769FE606010B106B0012010BD5020FC
:1042D00080F31188BFF34F8FBFF36F8FFEE70000AD
:1042E00070000020546D722053766300553300082F
:1042F0002DE9FF411E46134602000A9D4FF00000C3
:1043000016D0144C2768002F0FD0CDE9001302926D
:10431000062917DAFFF76AFE02284FF000030FD0D4
:10432000002269462068FFF723FC04B0BDE8F08155
:10433000502080F31188BFF34F8FBFF36F8FFEE7DC
:104340002A46EEE70023324669463846FFF7C0FCAE
:10435000EBE70000700000204FF04070E1EE100A23
:10436000704700008C44000800000000C0020020DC
:104370005C000000C00000200002000018000000E7
:104380000000000000000000C04400080000000021
:104390001C0500205C0000001C030020000200003F
:1043A000180000000000000000000000A444000805
:1043B00000000000780700205C0000007805002065
:1043C00000020000180000000000000000000000D3
:1043D000B444000800000000D40900205C00000084
:1043E000D4070020000200000800000000000000C8
:1043F0000000000098440008000000003012002077
:104400005C000000300A00200008000008000000E6
:1044100000000000000000006C44000800000000E4
:104420008C120020500000001C000020060000003C
:104430007C44000800000000F01200205000000042
:10444000DC1200201400000000000000000000004A
:10445000010203040607080900000000010203042A
:104460003A7474003A7474003A7474004D7075367E
:104470003035305175657565000000004D6F64651D
:104480006C67657451756575650000004D70753613
:104490003035305461736B004D6F64656C546173DB
:1044A0006B000000446174615472616E73546173F7
:1044B0006B000000446174614765745461736B0064
:1044C00053686F775461736B00000000EC44000880
:1044D00000000020C0000000C4010008AC45000836
:1044E000C0000020E04F0000E001000800000000D4
:1044F00000000000000000000000000000000000BC
:1045000000000000000000000000000000000000AB
:104510000100000010000000000000000024F40072
:10452000000000000000000000000000000000008B
:10453000000000000000000000000000000000007B
:10454000000000000000000000000000000000006B
:10455000000000000000000000000000000000005B
:10456000000000000000000000000000000000004B
:10457000000000000000000000000000000000003B
:10458000000000000000000000000000000000002B
:104590000000000000000000AAAAAAAA0000000073
:0C45A0000000000000000000000000000F
:040000050800018965
:00000001FF
