:020000040800F2
:10000000F063002061020008492C0008FD1F000871
:100010000D2C000885090008913A00080000000036
:10002000000000000000000000000000A101000826
:10003000010A000800000000FD010008A9340008C2
:100040007B0200087B0200087B0200087B0200089C
:100050007B0200087B0200087B0200087B0200088C
:100060007B0200087B0200087B0200087B0200087C
:100070007B0200087B0200087B0200087B0200086C
:100080007B0200087B0200087B0200087B0200085C
:100090007B0200087B0200087B0200087B0200084C
:1000A0007B0200087B0200087B0200087B0200083C
:1000B000693500087B0200087B0200087B0200080B
:1000C0007B0200087B0200087B0200087B0200081C
:1000D0007B020008853A00087B0200087B020008CA
:1000E0007B0200087B0200087B0200087B020008FC
:1000F0007B0200087B0200087B0200087B020008EC
:100100007B0200087B0200087B0200087B020008DB
:100110007B0200087B0200087B0200087B020008CB
:100120007B0200087B0200087B0200087B020008BB
:100130007B0200087B0200087B0200087B020008AB
:100140007B0200087B0200087B0200087B0200089B
:100150007B0200087B0200087B0200087B0200088B
:100160007B0200087B0200087B0200087B0200087B
:100170007B0200087B0200087B02000800000000F0
:100180007B0200087B020008DFF810D000F0D6FBED
:1001900000480047B5510008AFF30080F06300202D
:1001A0002C4B19680868B0E8F04F80F30988BFF35A
:1001B0006F8F4FF0000080F311887047000000003F
:1001C00008480068006880F308884FF0000080F35A
:1001D000148862B661B6BFF34F8FBFF36F8F00DF35
:1001E00000BF00BF08ED00E0DFF80C00016841F43B
:1001F00070010160704700BF88ED00E0EFF30980F7
:10020000BFF36F8F134B1A681EF0100F08BF20ED5D
:10021000108A20E9F04F106009B44FF0500080F3CD
:100220001188BFF34F8FBFF36F8F06F0F5FC4FF0CF
:10023000000080F3118809BC19680868B0E8F04F25
:100240001EF0100F08BFB0EC108A80F30988BFF3CE
:100250006F8F704734000020EFF305807047000077
:100260000648804706480047FEE7FEE7FEE7FEE750
:10027000FEE7FEE7FEE7FEE7FEE7FEE7593500088A
:10028000890100082DE9F05F0546002092469B4653
:1002900088460646814640241BE02846414647469C
:1002A000224600F060F953465A46C01A914110D3D5
:1002B00011461846224600F047F92D1A67EB01084F
:1002C0004F4622460120002100F03EF917EB0009BD
:1002D0004E41201EA4F10104DFDC484631462A4687
:1002E0004346BDE8F09F2DE9F0410024061B25465A
:1002F00071F1000605DA01240027D0EB070067EB57
:100300000101161E73F1000605DA0027D2EB070281
:10031000012567EB0303FFF7B5FF86460E46174638
:100320009C46AC4204D00025D0EB050E65EB0106DF
:1003300024B10020D2EB000760EB030C704631467D
:100340003A466346BDE8F08140EA01039B0703D0CB
:1003500009E008C9121F08C0042AFAD203E011F804
:10036000013B00F8013B521EF9D27047D2B201E0C6
:1003700000F8012B491EFBD270470022F6E710B5AA
:1003800013460A4604461946FFF7F0FF204610BD03
:10039000421C10F8011B0029FBD1801A704730B5B0
:1003A00004460020034600E05B1C934203D2E05C5D
:1003B000CD5C401BF8D030BD2DE9FE4F81EA03042F
:1003C00004F0004421F0004100944FF0000B23F0B2
:1003D000004350EA01045ED052EA03045BD0C3F349
:1003E0000A54C1F30A552C44A4F2F3340194A0FB3F
:1003F0000254C1F3130141F48011C3F3130343F416
:10040000801301FB024400FB034E840A970A44EA6E
:10041000815447EA8357A4FB076802958D0A05FBC0
:1004200007854FEA932C04FB0C542705029D4FEAE5
:10043000065847EA1637B5EB08056EEB070C870E32
:10044000920E47EA811742EA8312A7FB0201B6EB3C
:100450000B0164EB00042B0D43EA0C335E1844EBF4
:100460001C50DA465146E7FB0201C5F313044FEA7C
:100470000B3343EA14534FEA0432019C43EA060368
:10048000A4F10C040294009CCDE900B400F0C1F882
:1004900003B0BDE8F08F00200146F9E70EB5C10FAB
:1004A00080EAE0700844CA07002140F233438DE837
:1004B0000E000A460B4600F0ACF803B000BD00F099
:1004C000004230F000400AD0C10D01F56071C0F368
:1004D000160042EA0151C20840071143704700204C
:1004E0000146704701F0004330B421F0004150EA6A
:1004F000010206D00A0DA2F56072C1F31301002AB1
:1005000002DC30BC00207047440F44EAC104C10043
:10051000E01830BC00EBC25000F035B830B50B46E7
:10052000014600202022012409E021FA02F59D4223
:1005300005D303FA02F5491B04FA02F52844151EF7
:10054000A2F10102F1DC30BD202A04DB203A00FADE
:1005500002F1002070479140C2F1200320FA03F31A
:10056000194390407047202A04DB203A21FA02F018
:100570000021704721FA02F3D040C2F120029140DD
:100580000843194670470029A8BF7047401C49001E
:1005900008BF20F00100704710B4B0FA80FC00FAE8
:1005A0000CF050EA010404BF10BC704749B1CCF113
:1005B000200421FA04F411FA0CF118BF012121439F
:1005C0000843A3EB0C01CB1D4FEA00614FEA10205A
:1005D00042BF002010BC704700EBC35010440029FC
:1005E000A4BF10BC7047401C490008BF20F00100A8
:1005F00010BC704710B5141E73F1000408DA401CDB
:1006000041F1000192185B411A4301D120F0010031
:1006100010BD2DE9F04D92469B4611B1B1FA81F221
:1006200002E0B0FA80F220329046FFF78DFF0446D8
:100630000F4640EA0A0041EA0B0153465A46084376
:1006400013D0114653EA010019D0C8F140025046B8
:10065000FFF789FF05460E46504659464246FFF7CA
:1006600073FF084305D0012004E020463946BDE869
:10067000F08D0020054346EAE0762C4337430A9884
:100680006305E40AA0EB08000022FD0A44EA47548F
:100690000A3002D500200146E9E701051019694139
:1006A000DDE9084500196941BDE8F04DA2E72DE9F3
:1006B000FE4F804681EA0300C00F0C46009021F0F7
:1006C000004123F00045B8EB0200A94105D24046A5
:1006D000214690461C460B46024623F0004010433C
:1006E00047D0270DC7F30A00C3F30A510290401AFE
:1006F000019040286BDAC3F3130040F4801B00988C
:10070000924620B10023D2EB030A63EB0B0B019856
:100710005946C0F140025046FFF716FF06460D4607
:1007200050465946019A00F01BF910EB0800614150
:10073000002487EA115284EAE7731A4340D0009AF2
:1007400062B3019A012A4FEA075215DC001B61EBE4
:1007500002014FF0004202EA0752CDE90042001CBC
:1007600041F5801132462B46FFF753FF03B0BDE839
:10077000F08F40462146F9E7001B61EB0201001CA7
:1007800041F5801300185B412018A2F5001747EBD4
:10079000030140EAD570B6196D4111E06D084FEACA
:1007A000360645EAC0754FEA0752001B61EB0201AD
:1007B000001C41F5801149084FEA300000195141F1
:1007C00032462B4603B0BDE8F04FFFF713BF009849
:1007D000012240000023D0EB020263EBE07300989B
:1007E00021464FEAE074B8EB000061EB0401E9E751
:1007F00083F000435BE781F0004158E72DE9F04DBD
:1008000081EA030404F0004B21F0004514464FF048
:10081000000A23F0004150EA050220D054EA010208
:100820001DD0C5F30A570246C5F31303C1F31300E5
:10083000C1F30A5640F4801543F48013A7EB060871
:10084000101BD64608F2FD3873EB050002D308F101
:10085000010801E092185B41B8F1000F03DA0020B3
:100860000146BDE8F08D00204FF480110646844615
:100870000EE0171B73EB050705D3121B63EB050393
:1008800006434CEA010C49084FEA300092185B41DC
:1008900050EA0107EDD152EA030012D082EA0400C7
:1008A00083EA0501084305D0101BAB4106D20122A3
:1008B000002306E000224FF0004302E06FF0010247
:1008C00053101AEB06004CEB085110EB0A0041EBF9
:1008D0000B01BDE8F04DFFF78DBEC1F30A52C1F325
:1008E000130140F2FF3341F480119A4202DA0020F2
:1008F0000146704740F233439A42A2F2334202DC8F
:100900005242FFF730BEFFF71FBE000030B5041E95
:1009100071F1000404DB4FF00044404264EB01013C
:10092000141E73F1000405DB1C464FF000435242D5
:1009300063EB0403994208BF904230BD064C074D5B
:1009400006E0E06840F0010394E80700984710349F
:10095000AC42F6D3FFF71CFC70D1000890D1000820
:10096000202A06DBCB17203A41FA02F043EAE07373
:1009700006E041FA02F3D040C2F120029140084360
:1009800019467047FEE7000010B50B4C012211021A
:10099000204600F0C4F901224021084800F0BFF9C8
:1009A00001221021204600F0BAF90421044801F088
:1009B000B5F8002010BD0000000002400004024015
:1009C000FC19002001B54FF4FA7301226946024870
:1009D00000F0CCFD08BD0000A419002008B506F009
:1009E000C1FC00906421684606F042F8FAE708B5B9
:1009F00006F0B8FC00906421684606F039F8FAE782
:100A0000704700B502464FF47A7302E0184600F0D2
:100A100003F8521EFAD200BD01014FF0E0204161FF
:100A200000218161052101610169C903FCD504210F
:100A30000161704772B6FEE72DE9F0410446876D0B
:100A400000F072F9064694F835000025022806D019
:100A50008020606584F834500120BDE8F081206872
:100A6000016821F0160101602068416921F08001D0
:100A70004161206C08B9A06C20B12068016821F0A8
:100A8000080101602068016821F0010101600CE0AB
:100A900000F04AF9801B052807D920206065032053
:100AA00084F8350084F83450D7E720680068C00720
:100AB000EED194F85C103F208840B860012084F8A3
:100AC000350084F834500020C7E790F8351002292B
:100AD00003D08021416501207047052180F8351041
:100AE0000068016821F001010160002070470000EA
:100AF00070B5044600F018F90546601C02D00448A1
:100B00000078044400F010F9401BA042FAD370BDF5
:100B1000240000202DE9F84FDFF8BCA100220125B8
:100B200003264FF00F090AF1040BAAF1040E00BFCF
:100B30000B6805FA02F42340A34270D10F7907F045
:100B40000307012F01D0022F16D187684FEA420810
:100B500006FA08FC27EA0C07D1F80CC00CFA08FCCE
:100B60004CEA070CC0F808C04768A7430C79C4F3E7
:100B7000001494403C4344600C79E443A4070AD039
:100B8000C4684FEA420C06FA0CF7BC438F6807FAB8
:100B90000CF72743C7600C7904F00304022C12D130
:100BA000D40800EB840CDCF820405707FF0E09FA4C
:100BB00007F824EA0804D1F8108008FA07F848EA90
:100BC0000408CCF8208004684FEA420C06FA0CF7BF
:100BD000BC430F7907F0030707FA0CF727430760B8
:100BE0004C6814F4403F70D03C4C276847F4804771
:100BF0002760246822F0030704F480440094384CF2
:100C000007EB040CDCF8084897074FEA177809FA55
:100C100008F7BC43334FB84202D1002724E054E028
:100C2000314FB84201D101271EE0304FB84201D107
:100C3000022719E02E4FB84201D1032714E02D4FAF
:100C4000B84201D104270FE02B4FB84201D105274C
:100C50000AE02A4FB84201D1062705E0284FB842E2
:100C600001D1072700E0082707FA08F72743CCF847
:100C70000878DAF800405746D1F804C09C435FEA90
:100C8000CC2C00D51C433C60DBF800405F46D1F81B
:100C900004C09C435FEA8C2C00D51C433C60DEF80A
:100CA00000407746D1F804C09C435FEA8C3C00D5F5
:100CB0001C433C60084F083F3C68D1F804C09C438B
:100CC0005FEACC3C00D51C433C60521C102AFFF468
:100CD0002FAFBDE8F88F0000083C014044380240C7
:100CE00000300140000002400004024000080240C1
:100CF000000C0240001002400014024000180240A4
:100D0000001C02400069084000D001207047426981
:100D100021EA02030A4043EA0241816170470AB1B5
:100D2000816170470904FBE7014880687047000053
:100D300024000020024881680278114481607047D5
:100D4000240000200B4810B5016841F400710160D7
:100D5000016841F480610160016841F480710160C3
:100D6000032000F09FF80F2000F006F800F050F884
:100D7000002010BD003C024030B50546204887B039
:100D80000024016841F001010160006806A900F03B
:100D90000100009001A800F031F90498B0B100F012
:100DA0004DF9400017494FF08042B0FBF1F1164871
:100DB000491E026040F2E732C0E90324C0E9011491
:100DC000846100F0D1FC040003D015E000F036F996
:100DD000E8E70D4800F0F6FC04000DD11C2000F0FF
:100DE00033F8102D07D2002229461C2000F03AF8D3
:100DF0000648056000E0012407B0204630BD000031
:100E00004038024040420F008C1A00202800002089
:100E10000C4882B0016841F480410160006800F430
:100E2000804000900748001F016841F08051016038
:100E30000068002200F0805000900F21901E02B048
:100E400000F010B844380240002809DB00F01F020F
:100E5000012191404009800000F1E020C0F800111C
:100E600070470000F0B40E4B1B680C46C3F302231E
:100E7000C3F10705042D00D90425191D072901D246
:100E8000002300E0DB1E012606FA05F1491E214081
:100E900099409E40761E16403143F0BC02F01EBEC3
:100EA0000CED00E0064900F0070208684FF6FF036A
:100EB000184040EA0220034A1043086070470000CF
:100EC0000CED00E00000FA052DE9F0470E460500A4
:100ED00065D0DFF81481D8F80000F7B200F0070001
:100EE000B04207D288F80070D8F8000000F0070080
:100EF000B04254D128683D4C810712D5400703D534
:100F0000206840F4E05020602878000703D520686E
:100F100040F4604020602068A96820F0F000084399
:100F200020602878C0072DD030496868083901282A
:100F300012D0022813D0032811D00968890700298C
:100F40002DDA216821F0030101432160FFF7ECFE57
:100F5000814641F2883A0EE009688903EFE70968A3
:100F60008901ECE7FFF7E0FEA0EB0901514502D94A
:100F70000320BDE8F0872068696800F00C00B0EB42
:100F8000810FEFD1D8F80010404601F00701B142BF
:100F900007D90770006800F00700B04201D00120B7
:100FA000E7E72878400705D52068E96820F4E05095
:100FB000084320602878000706D52068296920F4B6
:100FC000604040EAC100206000F058F82168084AFB
:100FD000C1F30311515CC840064908600648006827
:100FE000FFF7CAFE0020C4E7003C02400838024078
:100FF0009877000830000020280000200F220260AF
:101000000C4A136803F003034360136803F0F00312
:101010008360136803F4E053C36012684FF4E05335
:1010200003EAD20202610448006800F00700086089
:101030007047000008380240003C0240044805495F
:1010400000680968044AC1F38221515CC8407047B6
:101050003000002008380240A877000804480549FD
:1010600000680968044AC1F34231515CC8407047C6
:101070003000002008380240A8770008154810B555
:10108000006810F00C02144813D04110042A0FD04D
:10109000082A0ED10F4C241F2268236802F03F0259
:1010A0005B0207D52068C0F38810A0FB010106E0B1
:1010B000084610BD2168C1F38811A1FB000100237F
:1010C000FFF7E0F82168C1F30141491C4900B0FB7A
:1010D000F1F010BD083802400024F4002DE9F84F6B
:1010E00004006ED02078DFF84C93C007A9F1040506
:1010F0004AD009F104000168C1F38101012908D037
:101100000068C0F3810002280AD1D9F8000040022B
:1011100006D52868800337D560680028E1D033E021
:101120006068B0F5803F10D0B0F5A02F286810D0CF
:1011300020F480302860286820F4802028606068CF
:10114000A8B1FFF7F1FD06460DE0286840F48030B5
:10115000F4E740F480202860F7E700BFFFF7E4FDE4
:10116000801B642873D828688003F7D50CE0FFF74C
:10117000DBFD064605E000BFFFF7D6FD801B6428B7
:10118000F0D828688003F7D42078DFF8AC82800795
:101190004FF0000A3ED5A748001D016811F00C0F62
:1011A00008D00068C0F3810002280BD1D9F80000F4
:1011B000400207D42868800716D5E068012800D1CE
:1011C00012E033E1E068B8B10120C8F80000FFF791
:1011D000ABFD064605E000BFFFF7A6FD801B022819
:1011E000C0D828688007F7D52868216920F0F80062
:1011F00040EAC10028600DE0C8F800A0FFF794FDA8
:10120000064604E0FFF790FD801B02281FD82868DF
:101210008007F7D42078000722D5864F8748616978
:10122000703771B101210160FFF77EFD064604E0D1
:10123000FFF77AFD801B022809D838688007F7D5A8
:101240000EE0C0F800A0FFF76FFD064605E082E063
:10125000FFF76AFD801B02287DD838688007F7D425
:101260002078400768D5DFF8CCB100270BF13C0BA4
:10127000DBF80000C0000BD4DBF8001041F0805117
:10128000CBF80010DBF80000012700F08050009040
:101290006B4E3068C00510D4306840F48070306008
:1012A000FFF742FD009005E0FFF73EFD0099401A70
:1012B000022850D83068C005F6D55E4EA0686C365E
:1012C00001280FD00528306810D020F001003060D0
:1012D000306820F004003060A068B8B1FFF724FD4A
:1012E00000900FE0306840F00100F4E740F00400A7
:1012F0003060F7E7FFF718FD0099411A41F2883096
:10130000814266D830688007F4D50EE0FFF70CFD07
:10131000009007E0FFF708FD0099411A41F288307C
:10132000814256D830688007F4D42FB1DBF8001022
:1013300021F08051CBF80010A069C8B33D49091DC8
:101340000968C1F3810102294AD00228504607D01A
:10135000C8F8600000E03CE0FFF7E6FC04463BE034
:101360004746C8F86000FFF7DFFC064605E000BF0F
:10137000FFF7DAFC801B02282BD828688001F7D4FD
:10138000D4E907010843A16A2E4A490802EB01414A
:10139000626A41EA8211084394F82C1040EA016124
:1013A000C9F8001001203866FFF7BEFC044606E0CD
:1013B0003EE000BFFFF7B8FC001B022809D82868F0
:1013C0008001F7D534E000BFFFF7AEFC001B022818
:1013D00002D90320BDE8F88F28688001F4D427E003
:1013E0000128F7D0D9F80000E26900F480019142A9
:1013F0001CD1226A00F03F01914217D147F6C0711B
:10140000626A0140B1EB821F10D1A26A4FF0FF3334
:1014100000F4403103EB5202B1EB024F06D194F8D5
:101420002C1000F07060B0EB016F01D00120D1E70B
:101430000020CFE70438024000004742800E4742B8
:10144000007000400000FFFF70B5040009D0606A22
:10145000002540B125616561A56294F8510040B155
:101460000CE0012070BD6068B0F5827FF4D0E561CA
:10147000F2E784F85050204600F044F8022084F847
:1014800051002068016821F040010160A088218995
:1014900000F4827001F404410843A18901F4006161
:1014A0000843217C01F002010843217D01F0010184
:1014B0000843218B01F400710843217F01F03801BA
:1014C000084394F8201001F080010843218D01F4B5
:1014D0000051084321680860A069042101EA104016
:1014E00094F8241001F01001084321684860206836
:1014F000C16921F40061C1616565012084F8510072
:10150000002070BD10B586B0044614216846FEF771
:1015100034FF13492068884220D112480021026814
:1015200042F480520260006800F4805005900D483B
:101530001438026842F001020260006800F0010005
:101540000590E02000900220CDE9010103200390E6
:101550000520049069460448FFF7DCFA06B010BD88
:101560000030014044380240000002402DE9F84FAD
:10157000984616468A460446FFF7D6FB814694F8FD
:10158000510001281ED1BAF1000F73D0002E71D086
:1015900094F85000012815D0012784F850700320DA
:1015A00084F8510000256565C4F830A0A686E6865B
:1015B000A563A587E58765642564A068B0F5004F3D
:1015C00003D00CE00220BDE8F88F2068016821F00C
:1015D000400101602068016841F480410160206899
:1015E0000168490603D4016841F040010160E068E8
:1015F000B0F5006F606803D048B3012E27D047E0F4
:1016000008B1012E1FD1206B21680088C86006E058
:1016100020688168890709D5216B0988C160206B22
:10162000801C2063E08E401EE0860CE0FFF77CFB10
:10163000A0EB0901414503D3B8F1FF3F03D035E0EA
:10164000B8F1000F32D0E08E0028E1D123E0206B0A
:1016500021680078087306E02068816889070AD548
:10166000216B09780173206B401C2063E08E401EC3
:10167000E0860DE02BE0FFF757FBA0EB09014145A9
:1016800003D3B8F1FF3F03D010E0B8F1000F0DD045
:10169000E08E0028E0D14A464146204601F07CFD1C
:1016A00008B120206065A06830B109E084F851706D
:1016B00084F85050032086E72068C1688068009055
:1016C00084F8517004F8505F60680028F3D001205E
:1016D00079E770477047000070B590F83C20012A08
:1016E00032D0012480F83C40022280F83D2003687B
:1016F0005A689D6822F070060A6832435A60134B9C
:1017000002689A4214D0B2F1804F11D0104B9A4225
:101710000ED0104B9A420BD00F4B9A4208D00F4B71
:101720009A4205D00E4B9A4202D00E4B9A4204D1F7
:10173000496825F080031943916080F83D400021FD
:1017400080F83C10084670BD022070BD00000140CA
:101750000004004000080040000C0040000401406C
:10176000004001400018004010B5040003D094F878
:101770003D0010B107E0012010BD002084F83C00BE
:10178000204600F01EF8022084F83D00211D20684C
:1017900001F0F0FE012084F8460084F83E0084F851
:1017A0003F0084F8400084F8410084F8420084F847
:1017B000430084F8440084F8450084F83D0000208C
:1017C00010BD704790F83D10012901D001207047ED
:1017D000022180F83D100168CA6842F00102CA6027
:1017E00000681149884214D0B0F1804F11D00F49E0
:1017F00088420ED00E4988420BD00E49884208D04C
:101800000D49884205D00D49884202D00C498842D2
:1018100004D1816801F00701062903D0016841F075
:1018200001010160002070470000014000040040F9
:1018300000080040000C004000040140004001404E
:101840000018004070472DE9F04104460068C66862
:1018500005694FF00007A90713D5B10711D5F91E87
:10186000016101202077206880698007204602D02E
:10187000FFF7E8FF04E000F0A7F8204600F04CF97D
:101880002777680716D5700714D521686FF0040014
:101890000861022020772068806910F4407F20468C
:1018A00002D0FFF7CFFF04E000F08EF8204600F0F2
:1018B00033F92777280715D5300713D521686FF03E
:1018C00008000861042020772068C069800720464E
:1018D00002D0FFF7B7FF04E000F076F8204600F0F2
:1018E0001BF92777E80616D5F00614D521686FF0A6
:1018F00010000861082020772068C06910F4407F3C
:10190000204602D0FFF79EFF04E000F05DF820467D
:1019100000F002F92777E80708D0F00706D0216821
:101920006FF001000861204600F05CF9280608D538
:10193000300606D521686FF0800008612046FFF769
:10194000C8FE680608D5700606D521686FF040000D
:101950000861204600F04DF9A8060AD5B00608D562
:1019600021686FF0200008612046BDE8F041FFF7D4
:10197000B1BEBDE8F081000010B586B00446142168
:101980006846FEF7FAFC0D492068884214D10C48DD
:101990000021026842F004020260006800F00400C6
:1019A0000590802000900220CDE90101CDE90310CF
:1019B00069460448FFF7AEF806B010BD00040040C9
:1019C0003038024000080240704770B5044690F875
:1019D0003C0000260D4601280FD0012084F83C0071
:1019E0006AB1042A1DD0082A2FD00C2A3FD0012624
:1019F000002084F83C00304670BD022070BD206895
:101A000001F02EFE2068816941F0080181612068A3
:101A1000816921F004018161206881692A6911438B
:101A200011E0206801F04CFE2068816941F40061FA
:101A300081612068816921F4806181612068816908
:101A40002A6941EA02218161D2E7206801F06EFE35
:101A50002068C16941F00801C1612068C16921F0B5
:101A60000401C1612068C1692A69114311E020683D
:101A700001F090FE2068C16941F40061C1612068F5
:101A8000C16921F48061C1612068C1692A6941EAA4
:101A90000221C161ACE710B5040003D094F83D0009
:101AA00010B107E0012010BD002084F83C00204662
:101AB00000F01EF8022084F83D00211D206801F08E
:101AC00059FD012084F8460084F83E0084F83F0068
:101AD00084F8400084F8410084F8420084F8430010
:101AE00084F8440084F8450084F83D00002010BDCF
:101AF00008B500680649884208D10648016841F0E7
:101B000002010160006800F00200009008BD0000C2
:101B100000040040403802407047000010B5044601
:101B2000022249B104290ED0082913D094F84100AB
:101B3000012816D0012010BD94F83E000128F9D1EB
:101B400084F83E200FE094F83F000128F2D184F899
:101B50003F2008E094F840000128EBD184F84020B1
:101B600001E084F841200122206801F06BFD164954
:101B70002068164A884201D0904203D1436C43F456
:101B8000004343642068884213D0B0F1804F10D0E6
:101B90000F4988420DD00F4988420AD00E49884229
:101BA00007D0904205D00D49884202D00C498842A6
:101BB00004D1816801F00701062903D0016841F0D2
:101BC00001010160002010BD00000140000401403F
:101BD0000004004000080040000C004000400140AC
:101BE000001800400068B0F1804F01D1FFF7A2B8A3
:101BF0007047704770477047F8B501680446086839
:101C0000CA684B6910F00F0F4FF0000559D003F070
:101C1000010602F49077374365D0C10705D0D1059E
:101C200003D5616C41F001016164410705D5D90715
:101C300003D0616C41F002016164810705D5D907C9
:101C400003D0616C41F004016164010707D502F023
:101C50002001314303D0616C41F008016164616C83
:101C600000293AD0800604D5900602D5204601F01E
:101C7000E7FD20684069616CC0F38010090700D45B
:101C800060B3204601F0B5FD20684069400621D5CB
:101C90002068143050E8001F21F0400140E8001295
:101CA000002AF5D1E06BA8B172490165E06BFEF73F
:101CB0000CFF002811D0E06B016D01B0BDE8F040D1
:101CC000084783060FD593060DD52046BDE8F8409A
:101CD00001F0B6BD2046FFF78EFFF8BD2046FFF7A6
:101CE0008AFF6564F8BD266B2023012E7ED1C606CF
:101CF0007CD5D6067AD508684868009048694FF0C8
:101D0000020640064DD5E26B106840684FF48077BC
:101D10000004000C3AD0A18D814237D9E085D0690A
:101D2000B8422DD020680C3050E8001F21F480719B
:101D300040E80012002AF5D12068143050E8001F56
:101D400021F0010140E80012002AF5D1206814308A
:101D500050E8001F21F0400140E80012002AF5D1B0
:101D600084F84230256320680C3050E8001F21F0D1
:101D7000100140E80012002AF5D1E06BFEF75CFE8E
:101D80006663A08DE18D401A81B206E0A18D81428B
:101D9000A8D1D069B842A5D166632046FFF72AFFD3
:101DA000F8BDA08DE18D401A81B2E08D0028F7D0FA
:101DB0000029F5D020680C3050E8002F22F49072F2
:101DC00040E80027002FF5D12068143050E8002F9C
:101DD00022F0010240E80027002FF5D184F84230BC
:101DE000256320680C3050E8002F00E006E022F068
:101DF000100240E80023002BF3D1CDE705062BD5D8
:101E0000150629D594F841002128C9D1A068B0F55C
:101E1000805F01D12069B0B1206A411C2162216834
:101E200000784860E08C401E0004000CE084B7D1CC
:101E30002068C16821F08001C1602068C16841F05C
:101E40004001C160F8BD206A0088C0F30800486006
:101E5000206A801C2062E5E74006F3D55006F1D5E4
:101E6000CA68204622F04002CA6084F8413000F07F
:101E7000C4F8F8BDE537000870B5040004D094F844
:101E80004100002510B106E0012070BD84F84050EB
:101E9000204600F023F8242084F841002068C1681F
:101EA00021F40051C160204601F02CFD2068016939
:101EB00021F4904101612068416921F02A014161CA
:101EC0002068C16841F40051C1606564202084F835
:101ED000410084F842006563002070BD10B586B0F3
:101EE000044614216846FEF748FA184920688842DB
:101EF00029D117480021026842F0100202600068F0
:101F000000F01000059012481438026842F00102F7
:101F10000260006800F0010005904FF4C06000907E
:101F20000220CDE9010103200390072004906946B7
:101F30000848FEF7EFFD002205212520FEF792FF5D
:101F40002520FEF781FF06B010BD00000010014003
:101F5000443802400000024070472DE9F84304462F
:101F600090F84100984616460D46202802D00220DF
:101F7000BDE8F88385B17EB100206064212084F83B
:101F80004100FEF7D1FEA6848146E684A0682027A2
:101F9000B0F5805F02D003E00120E9E7206910B1CD
:101FA0002E4600250EE000260CE08021204601F0A0
:101FB0002FFDA8B9C6B116F8010B21684860E08C66
:101FC000401EE084E08C4B464FF00002CDF80080CC
:101FD0000028EAD14FF04001204601F019FD40B140
:101FE00084F841700320C3E735F8020BC0F3080002
:101FF000E3E784F841700020BAE77047FEE700008D
:1020000010B586B014216846FEF7B7F911480021D3
:10201000026842F00202026000680F4C00F0020009
:1020200005904FF440600090112001900120CDE90F
:10203000020169462046FEF76DFD0122D1022046CD
:10204000FEF76DFE012291022046FEF768FE06B003
:1020500010BD000030380240000402404FF400611F
:102060000148FEF74FBE00000004024010B50120F9
:1020700000F070F8012000F05BF8FFF7EFFF044676
:10208000002000F055F8204610BD70B5002425460C
:10209000012000F05FF88026012000F049F8FFF7EA
:1020A000DDFF012802D126FA04F00543002000F0EC
:1020B0003FF8641CE4B2082CEED3284670BD10B57E
:1020C00000F048F8012000F033F8BDE8104000208F
:1020D00000F02EB870B500240546802626FA04F0DC
:1020E000284000F037F8012000F022F8002000F02E
:1020F0001FF8641C082CF1DB70BD10B5012000F046
:1021000029F8012000F014F8002000F023F8BDE8C1
:102110001040002000F00CB810B5002000F01AF8B4
:10212000012000F005F8BDE81040012000F012B8D1
:1021300010B508B1012200E000224FF4806104488C
:10214000FEF7EDFDBDE810400520FEF765BC000080
:102150000004024010B508B1012200E000224FF453
:1021600000610448FEF7DBFDBDE810400520FEF7E6
:1021700053BC0000000402402DE9F0411D46144606
:102180000F460646FFF7B9FF7006000EFFF7A2FFE5
:10219000FFF76CFF3846FFF79DFFFFF767FFFFF77C
:1021A000ACFF012000EB4600C0B2FFF793FFFFF742
:1021B0005DFF0AE0012C0FD0FFF767FF28700020B9
:1021C000FFF77DFF641EE4B26D1C002CF2D1FFF717
:1021D000A3FF0020BDE8F081FFF757FF2870012022
:1021E000EEE72DE9F0411E461546884607460024D5
:1021F000FFF783FF7806000EFFF76CFFFFF736FF4F
:102200004046FFF767FFFFF731FF05E0305DFFF75E
:1022100061FFFFF72BFF641CAC42F7DBFFF77CFF8D
:102220000020BDE8F08100002DE9F04107462DEDCA
:10223000028B82B06B4606223B216820FFF79CFF91
:102240009DF801009DF80010424C00EB01209DF824
:1022500002202188401A01B29DF8030000EB022001
:102260006288801A06B29DF805009DF8042000EBF4
:102270000220A288801A05B20846FEF70FF99FEDEA
:10228000368B53EC182BFEF797F8FEF72BF907EB7C
:10229000470804F10C0202EB880738603046FEF76D
:1022A000FDF853EC182BFEF787F8FEF71BF9786062
:1022B0002846FEF7F3F853EC182BFEF77DF8FEF7EF
:1022C00011F9B8606B46062243216820FFF754FFDE
:1022D0009DF801009DF800109DF8022000EB012000
:1022E0002188401A01B29DF8030000EB02206288A9
:1022F000801A05B29DF805009DF8042000EB02202D
:10230000A288801A04B20846FEF7C8F853EC182BCE
:10231000FEF752F8FEF7E6F8114A02EB8806306045
:102320002846FEF7BBF853EC182BFEF745F8FEF7EE
:10233000D9F870602046FEF7B1F853EC182BFEF781
:102340003BF8FEF7CFF8B06002B0BDEC028BBDE801
:10235000F0810000A84F0020000000000000203F96
:10236000BC5600202DE9F041064611480021438863
:102370000288084600F020FA012211020D48FEF7FB
:10238000CEFC00254FF48C774FEA162800244046F7
:10239000FEF718FBF0B2FEF715FB641CA4B2BC42BA
:1023A000F5D36D1CADB2F02DF0D3BDE8F081000087
:1023B000100100200000024070B514460B46024692
:1023C00000F04EFA012211020A48FEF7A8FC0A4D5D
:1023D000002240212846FEF7A2FC200AFEF7F2FA6E
:1023E000E0B2FEF7EFFA2846BDE870400122402136
:1023F000FEF795BC000002400004024070B5184D85
:102400000446012210212846FEF789FC0A20FEF727
:102410006FFB002210212846FEF781FC0A20FEF700
:1024200067FB012210212846FEF779FC7820FEF791
:102430005FFB0C490825F0200C714FF48C725CB1E5
:102440004A800880362000F08DF9284600F0A0F977
:10245000BDE8704000F008B848800A807825F1E7B0
:10246000000002401001002010B5FD2000F07AF9B4
:10247000062000F08DF9082000F08AF9612000F0B4
:1024800071F9072000F084F9042000F081F962203E
:1024900000F068F9002000F07BF9442000F078F9A2
:1024A000452000F075F9632000F05CF9412000F050
:1024B0006FF9072000F06CF9122000F069F9122082
:1024C00000F066F9642000F04DF9372000F060F963
:1024D000652000F047F9092000F05AF9102000F0BB
:1024E00057F9212000F054F9662000F03BF909204B
:1024F00000F04EF9102000F04BF9212000F048F9CF
:10250000672000F02FF9202000F042F9402000F071
:102510003FF9682000F026F9902000F039F94C20AE
:1025200000F036F97C2000F033F9662000F030F935
:10253000B12000F017F90F2000F02AF9022000F076
:1025400027F9012000F024F9B42000F00BF9012054
:1025500000F01EF9B52000F005F9022000F018F98E
:10256000022000F015F90A2000F012F9142000F002
:102570000FF9B62000F0F6F8042000F009F9012068
:1025800000F006F99F2000F003F9002000F000F9A8
:10259000022000F0FDF8DF2000F0E4F8112000F048
:1025A000F7F8E22000F0DEF8132000F0F1F8002048
:1025B00000F0EEF8002000F0EBF8302000F0E8F832
:1025C000332000F0E5F83F2000F0E2F8E52000F0CD
:1025D000C9F83F2000F0DCF8332000F0D9F83020B3
:1025E00000F0D6F8002000F0D3F8002000F0D0F87A
:1025F000132000F0CDF8E12000F0B4F8002000F046
:10260000C7F8572000F0C4F8E42000F0ABF85820D9
:1026100000F0BEF8002000F0BBF8E02000F0A2F8C7
:10262000012000F0B5F8032000F0B2F80E2000F011
:10263000AFF80E2000F0ACF80C2000F0A9F815203F
:1026400000F0A6F8192000F0A3F8E32000F08AF8C3
:102650001A2000F09DF8162000F09AF80C2000F0E7
:1026600097F80F2000F094F80E2000F091F80D205C
:1026700000F08EF8022000F08BF8012000F088F8BE
:10268000E62000F06FF8002000F082F8FF2000F054
:102690007FF8E72000F066F8012000F079F80420C8
:1026A00000F076F8032000F073F8032000F070F8D3
:1026B000002000F06DF8122000F06AF8E82000F029
:1026C00051F8002000F064F8702000F061F800205C
:1026D00000F05EF8EC2000F045F8522000F058F8C9
:1026E000F12000F03FF8012000F052F8012000F046
:1026F0004FF8022000F04CF8F62000F033F80920E3
:1027000000F046F8102000F043F8002000F040F8F8
:10271000002000F03DF8FD2000F024F8FA2000F041
:1027200037F8FC2000F034F83A2000F01BF80520C0
:1027300000F02EF8352000F015F8002000F028F801
:10274000212000F00FF8112000F00CF8C820FEF74F
:10275000CFF9292000F006F8BDE810400A20FEF766
:10276000C7B9000010B5044600224FF48071064836
:10277000FEF7D5FA002240210448FEF7D0FA2046A1
:10278000BDE81040FEF71EB9000002400004024000
:1027900010B50446012211020348FEF7C0FA204694
:1027A000BDE81040FEF70EB9000002400149086084
:1027B00070470000380400402DE9F04106462748E4
:1027C0001C46154600790F4601284FF02A0027D0F5
:1027D000FFF7C8FF1436C6F30720FFF7D9FFF0B2A2
:1027E000FFF7D6FF1335C5F30720FFF7D1FFE8B297
:1027F000FFF7CEFF2B20FFF7B5FF380AFFF7C8FF22
:10280000F8B2FFF7C5FF641EC4F30720FFF7C0FF4F
:10281000E0B2FFF7BDFFBDE8F0412C20FFF7A2BFFB
:10282000FFF7A0FF300AFFF7B3FFF0B2FFF7B0FFEA
:102830006D1EC5F30720FFF7ABFFE8B2FFF7A8FF57
:102840002B20FFF78FFF1437C7F30720FFF7A0FFF8
:10285000F8B2FFF79DFF1334D6E700001001002007
:102860002DE9F041064626481C46154600790F46DC
:1028700001284FF02A0025D0FFF774FF1436C6F365
:102880000720FFF785FFF0B2FFF782FF1435C5F38D
:102890000720FFF77DFFE8B2FFF77AFF2B20FFF755
:1028A00061FF380AFFF774FFF8B2FFF771FF200AE3
:1028B000FFF76EFFE0B2FFF76BFFBDE8F0412C20A1
:1028C000FFF750BFFFF74EFF300AFFF761FFF0B28E
:1028D000FFF75EFF280AFFF75BFFE8B2FFF758FF3C
:1028E0002B20FFF73FFF1437C7F30720FFF750FFF8
:1028F000F8B2FFF74DFF1434C4F30720D8E7000007
:10290000100100207CB5FFF77BFB002101910091B5
:102910006B46012275216820FFF72EFC9DF8000010
:1029200068280CD0BFF34F8F23480168234A01F475
:10293000E06111430160BFF34F8F00BFFDE7204608
:1029400002F06AFD002835D1782003F07BF9782069
:1029500002F08EFC642003F035F901F0B7FE184850
:10296000044602F003FC0546E01C02F0FFFB45EACA
:10297000C005A01D02F0FAFB45EA801080B201F00C
:10298000B3FF40F2731001F079FD642001F014FFF1
:1029900003F0CCFE002003F03BF801A801F03EFF5D
:1029A000042002F093FF4FF4FA7003F06DF805A0D5
:1029B00001F070F87CBD00000CED00E00400FA05A9
:1029C000B4000020646D7020696E697420636F6DBF
:1029D000706C6574650D0A0010B5194A0221032058
:1029E00003F0E4F9174C164A0221606118320A20FC
:1029F00003F0DCF9124AA061B43A0021124803F056
:102A000001FA0F4A2060903A0021104803F0FAF9C9
:102A10000B4A60606C3A00210D4803F0F3F9084A54
:102A2000A060483A00210B4803F0ECF9044AE0604A
:102A3000243A0021084803F0E5F9206110BD0000A8
:102A40006877000800000020212C0008C13200082F
:102A5000EF090008DD0900080F2C00082DE9F041FE
:102A600086B014216846FDF788FC294800240168D7
:102A700041F080010160016801F080010591016869
:102A800041F001010160016801F001010591016857
:102A900041F002010160016801F002010591016845
:102AA00041F00401016000681A4F00F004004FF487
:102AB00088760590002231463846FEF730F9DFF877
:102AC000588000224FF444614046FEF728F9012265
:102AD00004214046FEF723F90125CDE9005469465B
:102AE00038460294FEF716F80096CDE9015469467F
:102AF00038460394FEF70EF844200090CDE90154C7
:102B0000694640460394FEF705F806B0BDE8F0813B
:102B10003038024000000240000402400F4810B567
:102B20000D4901604FF48271416000218160C160F4
:102B30004FF400720161C0E90512C1610162416296
:102B400081620A21C162FEF77FFC002803D0BDE844
:102B50001040FDF76FBF10BD00300140A4190020E8
:102B600010B58AB0002407941C2168460894FDF72C
:102B700004FC17481549016040F2BB21C0E901146B
:102B800040F2E731C0E903148461FEF784FF08B125
:102B9000FDF750FF079407A90D480894FEF79CFD28
:102BA00008B1FDF747FF6020CDE90004029404223C
:102BB000694607480494FEF708FF08B1FDF73AFF9D
:102BC0000348FEF7D9FE0AB010BD00000004004023
:102BD000FC1900200C4810B50A4901604FF4E1319E
:102BE0004160002181600C22C160C0E90412816152
:102BF000C161FFF741F9002803D0BDE81040FDF79F
:102C000019BF10BD00100140441A0020FEE708B5AE
:102C100004F0A8FB00906421684603F029FFFAE75E
:102C200008B504F09FFB074C00903221684603F082
:102C30001FFF0020FFF7F8FA04212046FEF767F88F
:102C4000F3E7000000040240FEE700000149496884
:102C500008470000080100202DE9F05F81462D485B
:102C60001E46DDF828B0838888464B4502D3C188CC
:102C7000414504D2BDE8F05F27A000F00BBFB0884B
:102C8000410700D0012101EBD000203A10FB02F0F7
:102C9000F1884FF0800A484331680F18002534E06E
:102CA000002429E0ABF57F41FF3907D0387804F0E4
:102CB00007022AFA02F1084207D10EE0397804F03F
:102CC00007022AFA02F0014210D008EB050081B297
:102CD00009EB040080B20B9A06E008EB050081B214
:102CE00009EB040080B25A4600F0F2F9E0434007D5
:102CF00000D17F1C641CA4B2B088A042D2D8307925
:102D0000400700D07F1C6D1CADB2F088A842C7D828
:102D1000BDE8F09FD45D00204465627567203A20CD
:102D20005061696E745F44726177436861722049D3
:102D30006E7075742065786365656473207468656A
:102D4000206E6F726D616C20646973706C617920A4
:102D500072616E67650D0A002DE9F047C2B08946C1
:102D6000DDE94A65824698468DED000B1AA102A85E
:102D7000921C00F09FFE02A8FDF70AFB02F042FA47
:102D8000044602A8FDF704FB821E02A92046FDF7B7
:102D9000DBFA02A8FDF7FCFA2044002700F8017CCA
:102DA00002A8FDF7F5FA204410F8030C2E2805D1EF
:102DB00002A8FDF7EDFA204400F8037CCDE90056A7
:102DC000434622464946504600F006F9204601F0A7
:102DD00057FF42B0BDE8F087252E2A6C6600000040
:102DE0002DE9FF5F1E468A460024DFF85090DDF88B
:102DF00038801EE0029800250719009904FB06F0B0
:102E000001EB400B12E000BFB9F808100AEB050314
:102E100048468B4209DA4089874206DA0BEB4500C7
:102E2000B9B2028898B200F053F96D1CB542EBDBE1
:102E3000641C4445DEDBBDE8FF9F0000D45D00203C
:102E40002DE9F05F1D46904606468A46DDF828B01B
:102E5000B9E07F294FF0000056D8AA884EE05323EE
:102E60002C68434314F813308B4246D15321484316
:102E7000022101EB400004EB0009002739E00024A7
:102E80002EE000BFABF57F40FF384FEAE47004EB63
:102E9000507020F00700A4EB000299F800104FF0EA
:102EA000800020FA02F001EA000101D009B907E030
:102EB00071B10AEB070081B2301980B20B9A05E0BC
:102EC0000AEB070081B2301980B25A4600F000F9CF
:102ED000404804EA0001072901D109F10109641CF5
:102EE0002889A042CEDC287A400701D009F10109E7
:102EF0007F1C6889B842C2DC02E0401C8242AEDC22
:102F000008F10108E8885DE00127AA8855E053230D
:102F10002C68434314F813C08C454DD107EB430391
:102F2000E45C98F801309C4246D153214843022189
:102F30002A6801EB400002EB0009002738E000247A
:102F40002DE000BFABF57F40FF384FEAE47004EBA3
:102F5000507020F00700A4EB000299F800104FF029
:102F6000800020FA02F001EA000101D009B907E06F
:102F700071B10AEB070081B2301980B20B9A05E0FB
:102F80000AEB070081B2301980B25A4600F0A0F86F
:102F900010482040072801D109F10109641C288943
:102FA000A042CFDC287A400701D009F101097F1C3B
:102FB0006889B842C3DC02E0401C8242A7DC288951
:102FC00008F10208064498F8001000297FF441AF88
:102FD000BDE8F09F070000802DE9FC5F80461B489C
:102FE00089460D468188DDF834B01E4617464446B2
:102FF000A14203D3C1888246A94222D2BDE8FC5F28
:10300000134800F047BDB088BAF8043001195046A3
:10301000994203D9F188444629448DB2F188C08889
:103020002944814201D944464D460C99CDE9001B03
:10303000334629462046FFF70FFEB0887F1C204408
:1030400084B23A78002ADED1BDE8FC9FD45D00202E
:1030500028D100082DE9F0410D4C17460D460646D3
:1030600020816181A3816082A182A28A618A09A0F4
:1030700000F010FDE781002020822FB1B42F03D093
:10308000A580E680BDE8F081A680E580FAE7000033
:10309000D45D0020576964746842797465203D20CE
:1030A00025642C2048656967687442797465203D01
:1030B0002025640D0A0000000149486070470000A7
:1030C0000801002001490860704700000801002045
:1030D00030B4044624488388A3423AD3C3888B4241
:1030E00037D3C389E3B15A2B1CD0B42B20D0B3F50E
:1030F000877F37D10B464189091B491E89B2048A53
:103100000CB3012C1BD0022C05D0032C2AD104892E
:10311000E31A5B1E9BB24489611A491E89B212E010
:103120002346ECE70389591A491E8BB22146E6E78C
:1031300003891B1B5B1E44899BB2611ADDE704896E
:10314000E31A5B1E9BB204899C4202D340898842E9
:1031500003D230BC05A000F09DBC18460D4B1B6887
:1031600030BC184730BC7047D45D002044656275A0
:1031700067203A20457863656564696E67206469F5
:1031800073706C617920626F756E646172696573CA
:103190000D0A000008010020F8B515460E460B4642
:1031A000009204460122022100F02CF8A0B9134835
:1031B00013490068B0FBF1F04FF47A714843009076
:1031C0006068B0F5827F0DD1334600228021204611
:1031D000009500F017F870B1606D40F02000606558
:1031E0000320F8BD009830B1401E00902068806830
:1031F000C0430006F6D50020F8BD000030000020D6
:1032000000366E012DE9F8431E4691468846044675
:10321000089DFDF789FD401B351AFDF785FD074622
:1032200026480068C0F3CB3068430AE0701C09D020
:10323000FDF77AFDC01BA8420FD275B10098B8B354
:10324000401E00902068816838EA010033D00021D8
:103250004945EBD10020BDE8F8832068416821F0A2
:10326000E00141606068B0F5827F0BD1A068B0F5E5
:10327000004F02D0B0F5806F04D12068016821F0C2
:1032800040010160A06AB0F5005F09D120680168C3
:1032900021F4005101602068016841F4005101608F
:1032A000012084F85100002084F850000320D2E768
:1032B000FFE70025C6E70121CAE700003000002033
:1032C0000EB54AA000F0E6FBFDF75EFB4CA000F057
:1032D000E1FB4FF47A70FFF769FA0020FFF78EF8F0
:1032E0004FF6FF742046FFF73DF84DA000F0D2FBEB
:1032F000234600224FF48C71F020FFF7ABFE4DA067
:1033000000F0C8FB5348FFF7D7FE5348FFF7DAFE3B
:1033100052A000F0BFFB2046FFF798FC6420FDF7A9
:10332000E7FB52A000F0B6FB4FF478464FF6E07092
:10333000CDE90006514B52A20A211E20FFF74CFE98
:1033400061101F20CDE900014C4B4EA222211E200E
:10335000FFF742FE00254C4B03229FED4C0B3A2118
:103360001E20CDE90045FFF7F7FCCDE90046494BAB
:1033700049A2B4213220FFF763FD3C2003460090B0
:10338000462219214648FFF72BFD03F0EBFF454E7F
:103390000290142102A803F06BFB3068FDF78FF850
:1033A00041EC100B384B032264219620CDE90045F7
:1033B000FFF7D2FC7068FDF782F841EC100B324B3E
:1033C000032278219620CDE90045FFF7C5FCB068BF
:1033D000FDF775F841EC100B2B4B03228C21962046
:1033E000CDE90045FFF7B8FCD3E700004C43445F4C
:1033F00031494E38332044656D6F0D0A00000000DE
:103400004C43445F31494E38335F20496E69742024
:10341000616E6420436C6561722E2E2E0D0A0000D1
:103420005061696E745F4E6577496D6167650D0A1D
:103430000000000053657420436C65617220616E6A
:103440006420446973706C61792046756E74696F8D
:103450006E0D0A0065230008B92300085061696EEB
:10346000745F436C6561720D0A00000064726177DD
:10347000696E672E2E2E0D0A00000000F400002059
:103480003132330041424300EC000020F0A7C64B2C
:1034900037DD8E40FC000020C4E3BAC3000000000A
:1034A000A8B40008BC56002010B54FF0E020006919
:1034B00003F04AFF012803D0BDE8104003F058BCD8
:1034C00010BD000030B593B030216846FCF755FFC1
:1034D00014210CA8FCF751FF1D480025016841F09C
:1034E00080510160006800F0805011901948016817
:1034F00041F4804101600068022400F48040119092
:1035000001200090000401908001CDE9064008AA46
:103510000420A82182E813000B906846FDF7DEFD29
:1035200008B172B6FEE70CA90F2081E831004FF414
:10353000A0500F904FF48050109005210CA8FDF77B
:10354000C3FC002801D072B6FEE713B030BD000006
:1035500040380240007000400248016841F47001A8
:103560000160704788ED00E00148FEF76CB900008B
:103570008C1A0020F0B50268274B284D284E294FA1
:10358000294C4FF0804C984209D0604507D0A842A2
:1035900005D0B04203D0B84201D0A04204D122F0FD
:1035A000700E4A6842EA0E0298421BD0604519D05C
:1035B000A84217D0B04215D0B84213D0A04211D0C3
:1035C0001A4DA8420ED01A4DA8420BD0194DA84250
:1035D00008D0194DA84205D0184DA84202D0184D68
:1035E000A84203D122F44075CA682A434D6922F0EB
:1035F00080022A438D68C5620D688562984201D0B9
:10360000A04201D109690163016841F00401016030
:10361000012141610260F0BD000001400004004052
:1036200000080040000C0040000401400040014040
:10363000004401400048014000180040001C0040C8
:103640000020004010B501F01F030121046A9940D9
:103650008C430462016A9A401143016210BD00006C
:10366000F0B5036A026A22F00102026242688469CC
:10367000124E24F073050C682C4323F002058B686E
:103680002B430D4DA84201D0B04205D123F00807CD
:10369000CB683B4323F00403A84201D0B04205D1DC
:1036A0004D6922F4407215438A692A43426084615D
:1036B000496841630362F0BD00000140000401401D
:1036C000F0B5026A036A23F0100303624368846959
:1036D0000D6824F4E64444EA05248D6822F02002B3
:1036E00042EA05120F4D104EA84201D0B04206D159
:1036F000CF6822F0800242EA071222F04002A8427C
:1037000001D0B04207D14D6923F4406343EA8503F9
:103710008D6943EA8503436084614968816302627D
:10372000F0BD00000000014000040140F0B5026A55
:10373000036A23F4807303624368C46922F400724D
:1037400024F073050C68124E2C438D6842EA052262
:103750000E4DA84201D0B04206D1CF6822F40062DB
:1037600042EA072222F48062A84201D0B04207D187
:103770004D6923F4405343EA05138D6943EA051369
:103780004360C4614968C1630262F0BD000001404A
:103790000004014030B5046A026A22F480520262D9
:1037A0004268C3690D6823F4E64343EA05238D6844
:1037B00024F4005444EA0534084DA84202D0084DD0
:1037C000A84204D14D6922F4804242EA8512426047
:1037D000C36149680164046230BD0000000001401B
:1037E0000004014010B5806B0021C185FEF703FA8B
:1037F00010BD01680C3151E8002F22F4907241E8AD
:103800000023002BF5D10168143151E8002F22F07C
:10381000010241E80023002BF5D1016B012909D1F8
:1038200001680C3151E8002F22F0100241E800231A
:10383000002BF5D1202180F8421000210163704750
:1038400008B590F84210222901D0022008BD8268F4
:103850004FF480539A4201D1016921B1816A9A42A1
:103860001BD04AB10AE00268816A5268C2F30802BA
:103870000A80816A891C08E0026972B10268526894
:1038800002F07F020A70816A491C8162C18D491E63
:103890000904090CC18503D01BE002685268F1E7F6
:1038A0000168CA6822F02002CA600168CA6822F46E
:1038B0008072CA6001684A6922F001024A612021CF
:1038C00080F8421000214163026B012A03D0FEF709
:1038D00043FB002008BD016301680C3151E8002F53
:1038E00022F0100241E80023002BF5D101680A689C
:1038F000D20602D50A6849680091818DFEF77AF9EF
:10390000E7E7000070B5044600680169E26821F449
:103910004051114301612169A068E269084361696E
:10392000114308432168CA6849F20C639A43024371
:10393000CA6020684169A26921F440711143416164
:1039400031492068884202D03049884202D1FDF7CF
:1039500085FB01E0FDF772FBE26900231921642574
:103960003226B2F5004F626828D0A0FB0101930F08
:103970009200FCF787FC0146B0FBF5F06FF01802EF
:10398000504301EB800006EB0010B0FBF5F000F0B7
:10399000F002B1FBF5F002EB0012B1FBF5F06FF0B5
:1039A0001803584301EB800006EB0010B0FBF5F064
:1039B00000F00F0021681044886070BDA0FB010179
:1039C00092185B41FCF75EFC0146B0FBF5F002018A
:1039D000B1FBF5F06FF01803584301EB800006EBE4
:1039E000C000B0FBF5F000F0F80002EB4002B1FBC4
:1039F000F5F0584301EB800006EBC000B0FBF5F09A
:103A000000F00700D6E7000000100140001401405C
:103A10002DE9F843984617460D460446089E24E0D3
:103A2000701C22D0FDF780F9A0EB0800B0421AD834
:103A3000CEB12068C168490717D5802D15D0402D1B
:103A400013D00168C94309070FD4016800254068F5
:103A500000902046FFF7CDFE0820606484F84050B7
:103A60000120BDE8F8830320FBE72068006835EA01
:103A7000000004D00020B842D2D00020F1E701209D
:103A8000F9E700000148FEF7B7B80000441A00202B
:103A9000FEE700000FB4054B10B503A9044A0298D5
:103AA00000F0FEF810BC5DF814FB0000694C000843
:103AB000180100200FB4084B10B504A902AA0398FE
:103AC00000F0EEF8044602A9002000F06CFC20464D
:103AD00010BC5DF814FB0000A74300080907090E9D
:103AE000002804DB00F1E02080F80014704700F0AB
:103AF0000F0000F1E02080F8141D704702E008C8B4
:103B0000121F08C1002AFAD170477047002001E057
:103B100001C1121F002AFBD1704700002DE9FF5F91
:103B200082B00021DDE90430020DDDF840B003432E
:103B300018D044F61050A2F2FF32424315141198E7
:103B400001281FD0A5EB0B00401C5FEA000A4FF0D4
:103B500000064E4FDFF83891B046504615D5CAF1F1
:103B6000000413E0119801244AA3012801D16FEA4F
:103B70000B010298119AC0E90031C0E9024206B077
:103B8000BDE8F09FCBF10000DFE704460021404A8A
:103B9000491842EB0450CDE9001012E0E00707D0CD
:103BA00032463B4640464946FCF706FC804689467D
:103BB00032463B4610461946FCF7FEFB06460F46CA
:103BC0006410002CEAD1DDE90401DDE90023BAF13B
:103BD000000F06DAFCF7F0FB42464B46FCF7ECFB25
:103BE00005E0FCF70BFE42464B46FCF707FE044699
:103BF0000E460022284BFCF789FE03D84FF0FF3019
:103C0000014607E00022254B20463146FCF74FFDD8
:103C1000FCF763FE102409E0002C0ADB0A220023D3
:103C2000FCF730FB039B30321A55641E50EA010248
:103C3000F2D1641C039AC4F111031444119A012AAD
:103C400003D0012208430DD10AE0084304D000202C
:103C50004FF0110B119072E7A3EB0B056D1E0DE0F9
:103C60005B4504DD4FF0000205F1010504E003DAD5
:103C70004FF00002A5F10105002AECD0029811993D
:103C8000C0E90231C0E9004579E7000000001440B6
:103C90000000F03F300000000000F0430000E03F73
:103CA0002DE9FF4F95B09A46884606460025EEE17D
:103CB000252877D100242746F94A0121039400E002
:103CC000044316F8013F203B01FA03F01042F7D1FC
:103CD00030782A2811D06FF02F033078A0F130020D
:103CE000092A16D8039A44F0020402EB820203EB7D
:103CF00042021044761C0390EFE758F8042B03921D
:103D0000002A03DA504244F40054039044F00204C1
:103D1000761C30782E2816D116F8010F44F00404D2
:103D20002A280DD06FF02F023078A0F13003092B34
:103D300009D807EB870302EB4303C718761CF3E7A8
:103D400058F8047B761C30786C280FD006DC4C28A1
:103D500017D068280DD06A2814D104E0742810D038
:103D60007A280FD10DE044F400140AE044F48014E2
:103D700001E044F440147278824202D104F58014C8
:103D8000761C761C307866280BD013DC582877D048
:103D900009DC002875D04528F6D04628F4D04728FD
:103DA0001AD193E118E0632835D0642879D06528CA
:103DB00012D18BE1702873D008DC6728F1D0692814
:103DC0006FD06E280DD06F2806D1ACE073282CD0B0
:103DD000752874D0782853D05246179990476D1C97
:103DE00054E1C4F30250022809D003280DD0D8F8BA
:103DF000001004280DD00D6008F1040846E1D8F841
:103E00000010EA17C1E90052F6E7D8F800100D805B
:103E1000F2E70D70F0E718F8041B8DF80010002091
:103E20008DF80100EB46012003E058F804BB4FF089
:103E3000FF3061074FF0000102D40DE009F10101EC
:103E40008946B9420FDA8145F8DB1BF809100029D1
:103E5000F4D108E009F1010189468142FADB1BF83F
:103E600009100029F6D103985346A0EB0907214613
:103E70003846179A00F080FA284400EB090507E05D
:103E800044E008E10DE01BF8010B524617999047FA
:103E9000B9F10109F7D2534621463846179AF2E0A4
:103EA00039E00A21C4F302524FF0000B0091022ABC
:103EB00006D058F8040BC117032A09D00AE023E002
:103EC00008F1070020F00702F2E80201904605E041
:103ED00000B2C117042A01D140B2C117002906DA85
:103EE0000A460021404261EB02012D2202E0220538
:103EF00004D52B228DF80420012203E0E20701D033
:103F00002022F7E7914657E00A2100E010214FF008
:103F1000000B00910BE010214FF0000B44F0040463
:103F20000827009103E008204FF0000B0090C4F335
:103F30000252022A05D058F8040B0021032A08D0A7
:103F400008E008F1070020F00702F2E802019046BD
:103F500003E080B2042A00D1C0B24FF0000922076A
:103F60002AD53278702A07D0DDF800C08CF0100C0A
:103F70005CEA0B0C05D00EE040228DF804200122F3
:103F800008E050EA010306D030238DF804308DF8A4
:103F9000052002229146009B83F0080353EA0B039D
:103FA0000AD150EA010201D1620705D530228DF80D
:103FB00004204FF001097F1E3278582A04D039A21C
:103FC0000C920CAA02920BE03BA2F9E75B46009A26
:103FD000FCF758F90C9B9B5C029A521E02921370DC
:103FE00050EA0102F2D1029804A9081A00F1200B4C
:103FF000600702D524F4803400E001275F4502DD2C
:10400000A7EB0B0000E0002000EB0B0100900398F1
:104010004944401A0390E00306D453462146179AB8
:10402000039800F0A9F90544002706E001A85246CC
:10403000C05D179990476D1C7F1C4F45F6DBE00370
:104040000CD553462146179A039800F095F905447C
:1040500004E030205246179990476D1C0099481E85
:1040600000900029F5DC08E0029802995246007899
:10407000491C0291179990476D1CBBF10001ABF1EF
:10408000010BF1DC5BE100F065F90544761C30784A
:1040900000287FF40DAE19B02846BDE8F08F00006F
:1040A000092801003031323334353637383961620E
:1040B00063646566000000003031323334353637D2
:1040C000383941424344454600000000600700D4AF
:1040D000062708F1070020F00700F0E802238046D9
:1040E00003F0004C5FEA0C0001D097A009E0200526
:1040F00001D596A005E0E00701D095A001E0AFF260
:104100004C001390307823F0004365280CD006DC77
:10411000452809D046281DD047287FD13BE0662896
:1041200018D067287AD136E00021112F01DB112049
:1041300000E0781CCDE9000104A90CA8FFF7EEFC13
:10414000DDE90D010C9A4FF0000B07F10109109207
:1041500000914EE04FF000400097CDE9011004A916
:104160000CA8FFF7DBFCDDE90D020C9B0F994FF06B
:10417000000B91461093009211B9791C00EB0109D4
:10418000B7EB090003D4C0F1FF3B07F10109A9EB2C
:104190000700019042E0012F00DA01270021112FD2
:1041A00001DD112000E03846CDE9000104A90CA88A
:1041B000FFF7B4FCDDE90D010C9A00914FF0000B04
:1041C000B946109221070FD4009A4A4503DA914666
:1041D00001E0A9F10109B9F1010F05DD109AA9F17A
:1041E0000101515C3029F4D0B84202DA10F1040F19
:1041F00003DA0121CDE9011010E0002803DC83443B
:10420000A9EB000102E0411C494500DD8946A0EB15
:104210000B00401C01904FF000400290200705D495
:104220000198484502DB4FF0FF30019000208DF8E7
:104230004B0002980DF14B07B0F1004F25D0022042
:104240000C902B200D90029800280CDA404202902E
:104250002D200D9007E00A210298FCF75FF930311C
:10426000029007F8011D0C99481E0C900029F2DC01
:1042700002980028EFD1791E0D980870307800F070
:10428000200040F0450007F8020D11A8C01BC01D1A
:1042900002901398007800B1012000EB0901019809
:1042A00001EBE071029801440398401A401E03900C
:1042B000E00306D453462146179A039800F05CF8B1
:1042C00005441398007818B15246179990476D1C11
:1042D000E00323D553462146179A039800F04CF883
:1042E00005441BE0BBF1000F07DB0098584504DDD7
:1042F0001098179910F80B0001E0179930205246DA
:10430000904701980BF1010B401E05F1010501904A
:1043100004D12E205246179990476D1CB9F1000127
:10432000A9F10109DEDC05E017F8010B52461799E7
:1043300090476D1C0299481E02900029F4DC5346F8
:104340002146179A03989EE62D0000002B000000DE
:10435000200000002DE9F041044600251E461746C6
:10436000880404D405E039462020B0476D1C641E43
:10437000F9D52846BDE8F0812DE9F0410446002535
:104380001E469046C80301D5302700E02027880448
:1043900004D505E041463846B0476D1C641EF9D58A
:1043A0002846BDE8F0810A68531C0B601070704706
:1043B000FEB506460D460024684600F089FC002242
:1043C0009FED1B1A6B46012156F8227055F822000A
:1043D000381A00D5404200EE100A03EB8200B8EE16
:1043E000C00AD0ED000A20EE010AF5EEC00AF1EE97
:1043F00010FA0DD0C0EE201AB7EE000A0D4F31EEC4
:10440000C00AB0EEC00A10EE100AB84207DC09E09C
:1044100010EE100A084F3844084FB84202D301FA90
:1044200002F00443521C032ACEDB2046FEBD0000EE
:1044300000008037295C0F3E666666C19A99D900F4
:1044400008B560B120208DF8000028208DF801000B
:1044500030208DF8020038208DF8030004E0A322FC
:1044600004216846FBF782FF6A46042140F69E203D
:1044700001F044FC01F002F908BD00003EB504461D
:1044800002208DF80000CA208DF80100E3208DF88D
:10449000020009208DF803006A460421682001F01B
:1044A0002DFCA3208DF80000610609D5C0218DF8F0
:1044B0000110C8218DF80210C2218DF8031005E00B
:1044C0008DF801008DF802008DF8030014F4C07F10
:1044D00009D0C4218DF80410CC218DF80510C62117
:1044E0008DF8061005E08DF804008DF805008DF8B4
:1044F00006008DF808008DF807008DF809006A465F
:104500000A2140F6A72001F0F9FBA0074FF0D805DB
:1045100003D020208DF8000001E08DF800506A469D
:10452000012140F6B62001F0E9FBA00601D50120EB
:1045300000E0002000F08EF814F4C07F1ED0E005EB
:104540000AD5B2208DF800008B208DF80100B6202E
:104550008DF802009B2009E0B0208DF8000080203B
:104560008DF80100B4208DF8020090208DF8030032
:104570006A46042140F6A22001F0C0FBE1074FF497
:104580000B6022D0F8218DF800106A46012101F05D
:10459000B5FBFA21072000F097FA072000F062FA35
:1045A000012000F07FFA642000F03EFB4FF4FA7027
:1045B00000F04AFBC821254800F01CFA282000F032
:1045C00031FA0A2000F03EFA05E08DF800506A4604
:1045D000012101F093FBA00703D5D9208DF800003D
:1045E00001E08DF800506A46012140F23D7001F073
:1045F00085FB600701D5012000E0002000F048F8AD
:10460000E00601D5012000E00020FFF719FF104D62
:1046100044F00800688101F031F80020A8736006BA
:1046200001D50620A87314F4C07F02D0A87B801D9A
:10463000A87314F0140F02D0A87B1030A873A00741
:1046400002D0A87B001DA87300203EBD09E3CA026A
:10465000C45D00200EB54FF4976310B106A107C9E1
:1046600001E008A207CA8DE807006A46092118463A
:1046700001F044FB0EBD0000B8AAB38DB4980D350F
:104680005D000000B8AAAAAAB088C3C5C700000090
:1046900008B560B1C0208DF80000C2208DF801007F
:1046A000C4208DF80200C6208DF8030004E08B22A0
:1046B00004216846FBF75AFE6A46042140F698201A
:1046C00001F01CFB00F0DAFF08BD0000C8234FF426
:1046D0008062024940F6F63000F0FABE0478000825
:1046E0002DE9FF41044603A800F00AFEBDF80C00C6
:1046F000410CC3032F48008900F0030254F82250F4
:10470000420700D56D42C0F3C102860654F822204C
:1047100000D55242C0F38116C00554F8264000D59A
:104720006442A5FB0367E81700FB037005FB01006B
:10473000850045EA9670A2FB0367D51705FB037554
:1047400002FB0152950045EA9672A4FB0367E51748
:1047500005FB037304FB01318B0043EA9671030EE2
:104760008DF80030030C8DF80130030A8DF802300B
:104770008DF80300100E8DF80400100C8DF8050064
:10478000100A8DF80600080E8DF80800080C8DF848
:104790000900080A8DF80A008DF807208DF80B1023
:1047A0006A460C214FF4257001F0A8FA04B0BDE868
:1047B000F0810000C45D002030B5044613A285B02E
:1047C00007CA8DE807004FF0FF35C82C16D8C8205F
:1047D000B0FBF4F1491E080A8DF80C008DF80D109D
:1047E00003AA022140F2162001F088FA30B96A4685
:1047F0000C2140F6C12001F081FA10B1284605B025
:1048000030BD054884810020F9E70000FEF2ABC40A
:10481000AAF1DFDFBBAFDFDFC45D0020F8B53049B0
:10482000098901F0030250F822404A0700D564428A
:10483000C1F3C1028B0650F8222000D55242C1F3C9
:10484000811350F82330C80500D55B42254984FB0D
:104850000140850045EA947082FB0142A40F44EABE
:10486000820483FB0121950F45EA8105010E8DF835
:104870000010010C8DF80110010A8DF802108DF85E
:1048800003006A4604214FF4747001F037FA4FF0C8
:10489000FF3688B9200E8DF80000200C8DF801003D
:1048A000200A8DF802008DF803406A4604214FF477
:1048B000757001F023FA08B13046F8BD280E8DF866
:1048C0000000280C8DF80100280A8DF802008DF8F0
:1048D00003506A4604214FF4767001F00FFAF8BDD8
:1048E000C45D002009E3CA022DE9FF4104463CA053
:1048F00004F00303006802903AA0006803903AA015
:1049000006683AA0056802A8C15C8DF80010C4F3DF
:10491000C101425C8DF80120C4F38112805C8DF8E6
:10492000020003A8C35C8DF80430415C8DF80510CB
:10493000805C8DF806006A46032140F2264001F0B3
:10494000DDF94FF0FF37E0BB01AA032140F22A4016
:1049500001F0D4F9A8BBCDE9006560070BD59DF83F
:10496000000040F001008DF800009DF8040040F0C8
:1049700001008DF80400A0060BD59DF8010040F061
:1049800001008DF801009DF8050040F001008DF850
:104990000500E0050BD59DF8020040F001008DF800
:1049A00002009DF8060040F001008DF806006A46FE
:1049B00003214FF4886001F0A1F910B901AA032185
:1049C00000E004E040F2314001F098F918B13846B7
:1049D00004B0BDE8F081064804810020F8E700003B
:1049E0004CCD6C000CC92C0036567600264666006D
:1049F000C45D00204FF47A7290FBF2F008B5484392
:104A0000010E8DF80010010C8DF80110010A8DF8CF
:104A100002108DF803006A4604214FF4AE7001F0D5
:104A20006DF908BD0521B0FBF1F008B5010A8DF85C
:104A300000108DF801006A4602214FF4AD7001F0BC
:104A40005DF908BD0521B0FBF1F008B5010A8DF84C
:104A500000108DF801006A4602214FF4AC7001F09D
:104A60004DF908BD08B500218DF80010C10702D02E
:104A700030218DF80010810705D59DF8001041F018
:104A80000C018DF80010400705D59DF8000040F09E
:104A900003008DF800006A4601214FF4A47001F074
:104AA0002DF908BD08B560B1042800D90420401EC6
:104AB0008DF800006A46012140F24F1001F01EF906
:104AC00008BD0120F3E7000070B504462DED028B10
:104AD00082B040074FF0FF357ED0B1F5C86F7BD86C
:104AE00000EE101AB8EE400ADFED460A01A880EE8B
:104AF000208A00F0E7FB9DF80400022806D0042875
:104B000010D0082835D0102874D13EE09FED3E0A21
:104B100028EE000ABCEEC00A10EE100A9FED3B0A18
:104B200082B20AE09FED3A0A28EE000ABCEEC00A03
:104B300010EE100A9FED370A82B228EE000A6E4688
:104B4000BCEEC00A10EE100A81B2100A8DF8000007
:104B50008DF80120080A8DF802008DF80310E00797
:104B600026D0324602214FF4EA7001F0C7F898BB14
:104B700017E09FED290A28EE000ABCEEC00A10EEED
:104B8000100A9FED260A82B2D7E79FED250A28EE8C
:104B9000000ABCEEC00A10EE100A9FED220A82B293
:104BA000CBE7B21C02214FF4927001F0A7F898B93C
:104BB000A0070DD56A4602214FF4EC7001F09EF873
:104BC00050B9B21C02214FF4947001F097F818B953
:104BD000600714D56A4600E00CE002214FF4EE7045
:104BE00001F08CF830B9B21C02214FF4967001F03C
:104BF00085F820B1284602B0BDEC028B70BD0020C4
:104C0000F9E70000000048430000804600004046ED
:104C1000000000460000C0450000804500004045FF
:104C2000000000450000C0440521B0FBF1F008B5CC
:104C3000010A8DF800108DF801006A4602214FF438
:104C4000EF7001F05BF808BD0521B0FBF1F008B58D
:104C5000010A8DF800108DF801006A4602214FF418
:104C6000ED7001F04BF808BD13B54FF0FF33012292
:104C700069460248FDF771F900981CBD441A0020EE
:104C800010B5002821D0114B0022001F196803E045
:104C9000814203D80A4649680029F9D152B1136804
:104CA000841A9C4204D1006818441060104602E047
:104CB000506000E0186039B102680B1A934203D1CA
:104CC0000B681A4402604968416010BD1C01002055
:104CD0001FB50446274802AB042240680D21007826
:104CE000FDF74AFA10B1072004B010BD9DF8081076
:104CF0001C2000EAD1029DF80B10DFED1F0AC1F362
:104D000001131A438DF800209DF80920C1F3810397
:104D100000EAD2021A438DF801209DF80A2001F022
:104D2000030100EAD20008439FED141A9FED140A14
:104D30008DF8020000216A46505C002804EB8100D7
:104D400002D080ED001A09E0C0ED000A0CE000BFBF
:104D5000D0ED001A61EE801AC0ED001A535C5B1EA4
:104D600013F0FF035354F3D1491CC9B20329E3D311
:104D70000020B9E7C0000020000000007B14AE3E18
:104D80001D5A843F2DE9FE4F05460120C14E8DF886
:104D900000004FF000088DF8018030680C4617467F
:104DA000417D70686B4602220078FDF71AFA4FF0D9
:104DB000FF3A00287AD1C820FBF723FE8DF8008047
:104DC00030686B460122417C70680078FDF709FA73
:104DD0000028EFD130686B46012241797068007875
:104DE000FDF7FFF90028E5D130686B460122417DCF
:104DF00070680078FDF7F5F90028DBD130686B4664
:104E00000122817E70680078FDF7EBF90028D1D18E
:104E100030686B460122017970680078FDF7E1F98E
:104E20000028C7D14FF00C098DF8009030686B4610
:104E30000122017970680078FDF7D3F9002835D197
:104E40000F20FBF7DEFDB06A6B460122407A8DF839
:104E500000003068817870680078FDF7C2F900289A
:104E600024D1B06A6B460122007A8DF800003068C8
:104E7000417870680078FDF7B4F9002873D1B06A02
:104E8000807A0FB140F0E0008DF8000030686B468A
:104E90000122817970680078FDF7A3F9002862D1BA
:104EA0002FB1B06AC07A40F0E00001E04AE018207B
:104EB0008DF8000030686B460122C1797068007877
:104EC000FDF78FF9F0BB17B1C820FBF79AFD402022
:104ED0008DF8000030686B46012201797068007817
:104EE000FDF77FF970BB78208DF8000030686B46C5
:104EF0000122417970680078FDF773F910BB322008
:104F0000FBF77FFD8DF80080306847466B4641799E
:104F1000706801220078FDF764F998B9316870680B
:104F2000B046097B00786B460222FDF725F948B9A7
:104F3000BDF80000AF6040BAB0FBF9F06F60C6B2D8
:104F40002F6000E00FE0A76067602760002739E06E
:104F5000D8F80010D8F804006B46497B00780C2282
:104F6000FDF70AF910B15046BDE8FE8FBDF800000C
:104F7000236840BA00B2BDF80210BDF804201844FE
:104F8000206049BA606809B20844606052BAA068FB
:104F900012B21044A060BDF806002B6840BA01B2FE
:104FA000BDF80800BDF80A201944296040BA6968B4
:104FB00000B20844686052BAA86812B210447F1C5C
:104FC000FFB2A860B742C3D328688322C11709047F
:104FD00041EA104100040023FBF785F93246002323
:104FE000FBF781F9286068688322C117090441EA48
:104FF000104100040023FBF776F932460023FBF74B
:1050000072F96860A8688322C117090441EA104157
:1050100000040023FBF767F932460023FBF763F92E
:10502000A86020684FF40065C117090441EA1041E7
:1050300000042A460023FBF756F932460023FBF70B
:1050400052F9206060682A46C117090441EA1041FC
:1050500000040023FBF747F932460023FBF743F92E
:105060006060A0682A46C117090441EA10410004A3
:105070000023FBF738F932460023FBF734F9A06030
:10508000002802DDA0F5803001E000F58030A0604E
:10509000002069E7C0000020F8B506462E480D46FE
:1050A000002440686B46032200780D21FDF764F868
:1050B00008B10720F8BD9DF80000002200F01F0095
:1050C0008DF800009DF801009FED241A00F01F00EC
:1050D0008DF801009DF802006B4600F01F008DF86E
:1050E0000200012156F8220055F82270C01B00D59D
:1050F000404200EE100A985CB8EEC00A60EE010A69
:10510000D0B1B3EE090ADFED161A01E020EE210A54
:10511000C0B2401E10F0FF009854F7D1C0EE801AC4
:10512000B7EE000A0F4F31EEC00AB0EEC00A10EE23
:10513000100AB84207DC09E010EE900A0A4F384422
:10514000B0F1D97F02D901FA02F00443521C032ABC
:10515000C8DB2046F8BD0000C000002000008037FA
:1051600054E3853F295C0F3E0000E0BE90F900103B
:10517000002902DD4FF00000704702DA4FF0040012
:10518000704790F90110002902DD4FF001007047CF
:1051900002DA4FF00500704790F90200002802DDA6
:1051A0004FF00200704702DA4FF0060070474FF0F0
:1051B00007007047FBF7C6FDFDF7A4FBFEF782F979
:1051C000FDF74CFCFDF706FDFDF7A8FCFDF7C8FC5C
:1051D00004A0FEF75FFC00F0BBFDFDF7FDFB00F057
:1051E000C9FDFEE753544D333246342055415254E5
:1051F000205072696E7466204578616D706C650D23
:105200000A000000F0B50B30154D20F00701002416
:10521000144A0FE003688B420BD38B4205D95E1A08
:1052200043184768C3E9006700E04368136002C0A1
:1052300004E0021D10680028ECD12046002802D1AD
:10524000286808B10020F0BD064A07481060074AE8
:10525000121A22F00702C0E9002401202860D7E7D3
:10526000200100201C010020F45D0020F05F0020E0
:105270002DE9F041124C20F00101002594F82400A2
:1052800010B10020BDE8F081A07A4FF0FF3668B180
:105290000840277C2074884200D0354641B1012067
:1052A00001F086FA00F0EAF938B127743046E9E7F0
:1052B000207D00B1012001F07BFA2846E2E70000E2
:1052C000C00000200D494A7A42B1012A08D0022AC2
:1052D0000FD0032A0FD04FF0FF307047022200E0BA
:1052E00004220270C97C11B11106C90D01700020A1
:1052F00070470822F5E71022F3E70000C000002005
:105300000F494A7A42B1012A09D0022A11D0032A50
:1053100012D04FF0FF3070474FF4804201E04FF45D
:1053200000520280C97C11B1C2F34E0101800020FD
:1053300070474FF48052F4E74FF40062F1E7000049
:10534000C00000200B49097A39B1012907D0022990
:105350000AD003290BD0002103E0FA2101E04FF429
:10536000FA710180002070474FF47A71F9E74FF429
:10537000FA61F6E7C00000200D49097A41B1012920
:1053800009D002290DD003290ED04FF0FF3070470D
:105390009FED080A01E09FED080A80ED000A002059
:1053A00070479FED060AF8E79FED050AF5E7000054
:1053B000C000002000000343000083423333034257
:1053C000333383410C49C97A072913D2DFE801F04E
:1053D0001204060A0C0E1000BC2100E062210180BC
:1053E000002070472A21FAE71421F8E70A21F6E79E
:1053F0000521F4E70021F2E7C0000020054991F8FB
:10540000242012B14FF0FF307047C989018000207D
:1054100070470000C00000207CB52C4C80208DF827
:10542000000020686B460122417D60680078FCF72F
:10543000D8FE4FF0FF36E8BB6420FBF7E2FA002508
:105440008DF8005020686B460122417D606800782D
:10545000FCF7C7FE70BBE574FF2004F80A0F310C9F
:1054600004F8020C04F8010C6070A180A071207295
:105470000120A07020766576E572A572E560256151
:105480006561A576E576A5834FF4FA6000F0FCFA35
:1054900080B9022000F01AFA60B92A2000F05CFB03
:1054A00040B9322000F08EFB20B90020FFF7E0FE6B
:1054B00000B900E003E0002000F03CFA08B13046FB
:1054C0007CBD002000F0BEFB00207CBDC0000020A1
:1054D0002DE9FF4FDFF89480064685B098F8250047
:1054E00015460F464FF0FF39B0BBAFB3002420E0A4
:1054F000301B102800DD102080B283463A19014687
:105500009246204600F0FAFB30BB6A4659462046D8
:1055100000F08AF800BB50465A466946FAF73FFF4A
:1055200020B16FF0010009B0BDE8F08F04EB0B0073
:1055300084B2B442DCD3280A8DF810008DF81150E3
:10554000D8F80000444604AB417FD8F8040002229A
:105550000078FCF746FE08B14846E4E7012084F8ED
:1055600025000898E0840020DDE70000C00000204E
:105570002DE9F84305464FF0FF39282844D807277E
:10558000284C00267DB1012000F0B4FA20208DF8CF
:1055900000004FF00108012D17D0052D18D88DF807
:1055A000018005201FE0002000F0A4FA8DF80060C3
:1055B0008DF8017020686B460222417D606800789A
:1055C000FCF70FFE00BB267529E08DF80160E8E7C7
:1055D000142D04D802208DF801000A2003E00320D6
:1055E0008DF80100142000F0B7FA9DF801006B4619
:1055F00007EB80108DF8010020680222417D606871
:105600000078FCF7EEFD10B14846BDE8F8830820AD
:10561000A072267384F814800020FFF729FE002072
:10562000F3E70000C0000020F8B516000D464FF06B
:10563000FF371FD0104CA17AE1B1010A8DF800109C
:10564000C0B28DF80100411960684289914211D8B9
:10565000216800786B46C97E0222FCF7C2FD48B97A
:105660002068EAB23346017E60680078FCF784FD6A
:10567000002800D03846F8BDC0000020F8B5564CD0
:105680004FF0FF36A07A00287DD000258DF800501D
:1056900020686B460122417C60680078FCF7A1FD20
:1056A000002870D120686B4601224179606800783B
:1056B000FCF797FD002866D120686B46012201792E
:1056C00060680078FCF78DFD00285CD194F8240018
:1056D000E0B30C208DF8000020686B4601220179B0
:1056E00060680078FCF77DFD002872D13220FBF75E
:1056F00088F9C0208DF80000A07AC00702D0E02011
:105700008DF8000020686B460122017960680078FE
:10571000FCF767FD00285CD1607C18B102208DF891
:10572000000001E08DF8005020686B460122417CAA
:1057300060680078FCF755FD28BB8DF800502068A4
:105740006B4601224179606800783EE0FFE7042063
:105750008DF8000020686B460122017960680078AE
:10576000FCF73FFD78B9A07C90B9A07AC0070FD0B4
:105770005FF060008DF8000020686B46012201791F
:105780006068007800E024E0FCF72BFD08BB01E036
:105790004020EFE73220FBF734F9607C18B101209C
:1057A0008DF8000001E08DF8005020686B46012262
:1057B000417C60680078FCF714FD50B92068064B06
:1057C00001224179606810330078FCF70AFD002857
:1057D00000D03046F8BD0000C00000202DE9F047A1
:1057E000394C82468AB094F82400894620B10020C2
:1057F00000F00EF9012600E0002607A8FFF7A2FD41
:1058000006A8FFF75FFD09A8FFF7DCFD08A8FFF772
:10581000F5FD94F80A80277C002500224946504671
:10582000FFF7B0FA10B16D1C022DF6DB022D1AD075
:105830000025012203A96846FFF7A4FA10B16D1CE8
:10584000022DF6DB022D0ED003A94846FEF7B0FD6F
:10585000C5B269465046FFF71FFC10F0FF0F4FF02E
:10586000000002D002E0002505E001200DB940F063
:10587000020040F00405FF2020726072E0724FF6D3
:10588000FF71E181A072207401202073BDF81C001B
:1058900000F0FAF89DF8180000F018F8BDF82400A0
:1058A00000F05AF9BDF8200000F08CF9404600F0F5
:1058B000C9F93846FFF7DCFC16B1012000F0A8F862
:1058C0000AB02846BDE8F087C000002038B5184C63
:1058D0004FF0FF35A17A19B3022806D0042806D06C
:1058E00008280ED010281BD10DE0002000E0082071
:1058F0008DF80000607A9DF80010B0EBD10F04D055
:1059000005E01020F4E71820F2E7002038BD2068F9
:105910006B460122C17960680078FCF762FC08B12F
:10592000284638BD9DF80000C0086072EDE7000011
:10593000C0000020F8B5354C0546A07CA84201D136
:105940000020F8BD31484FF0FF366B46D0E900101B
:105950004FF001020979007835B3FCF70DFC70BBFC
:105960009DF800006B4620F020008DF800002068B4
:105970000122017960680078FCF733FCF8B9032054
:10598000FBF73FF802208DF8000094F8220078B36E
:1059900082202BE020686B460122C17D6068007880
:1059A000FCF71FFC58B92EE0FCF7E6FB38B9A07AEB
:1059B000C0079DF8000003D040F0200002E00CE09A
:1059C00020F020008DF8000020686B46012201794C
:1059D00060680078FCF705FC08B13046F8BD03208C
:1059E000FBF70FF894F8220000B180208DF800003A
:1059F00094F823000028CDD09DF8000040F030003E
:105A00008DF80000C6E7A5749AE70000C0000020EA
:105A100038B51C4C94F8241081421DD0002500B3E9
:105A200094F82500D0B1002000F0C2FE0020FFF75E
:105A300081FFE08C00F0C6F88DF8005060686B467E
:105A4000012200782321FCF7CCFB012084F82400FC
:105A500000F0AEFEFFF712FE002038BD4FF0FF3021
:105A600038BD002000F0A4FE207C8DF800006068A6
:105A70006B46012200782321FCF7B3FB84F8245005
:105A8000E8E70000C000002038B5194C4FF0FF35A2
:105A9000A17A31B3FA2809D0B0F5FA7F08D0B0F571
:105AA0007A7F0FD0B0F5FA6F1BD10DE0002000E037
:105AB00008208DF80000207A9DF80010B0EBD10F7F
:105AC00004D005E01020F4E71820F2E7002038BDEC
:105AD00020686B460122817960680078FCF781FBC1
